{
	"contractName": "NFTtrade",
	"abi": [
		{
			"inputs": [
				{
					"internalType": "address",
					"name": "_tokenAddress",
					"type": "address"
				},
				{
					"internalType": "address",
					"name": "_coinAddress",
					"type": "address"
				}
			],
			"stateMutability": "nonpayable",
			"type": "constructor"
		},
		{
			"inputs": [
				{
					"internalType": "uint256",
					"name": "",
					"type": "uint256"
				}
			],
			"name": "SaleTokenList",
			"outputs": [
				{
					"internalType": "uint256",
					"name": "",
					"type": "uint256"
				}
			],
			"stateMutability": "view",
			"type": "function"
		},
		{
			"inputs": [],
			"name": "coin",
			"outputs": [
				{
					"internalType": "contract Token",
					"name": "",
					"type": "address"
				}
			],
			"stateMutability": "view",
			"type": "function"
		},
		{
			"inputs": [],
			"name": "nft",
			"outputs": [
				{
					"internalType": "contract NftToken",
					"name": "",
					"type": "address"
				}
			],
			"stateMutability": "view",
			"type": "function"
		},
		{
			"inputs": [
				{
					"internalType": "uint256",
					"name": "",
					"type": "uint256"
				}
			],
			"name": "tokenPrices",
			"outputs": [
				{
					"internalType": "uint256",
					"name": "",
					"type": "uint256"
				}
			],
			"stateMutability": "view",
			"type": "function"
		},
		{
			"inputs": [
				{
					"internalType": "uint256",
					"name": "_tokenId",
					"type": "uint256"
				},
				{
					"internalType": "uint256",
					"name": "_price",
					"type": "uint256"
				}
			],
			"name": "salesToken",
			"outputs": [],
			"stateMutability": "nonpayable",
			"type": "function"
		},
		{
			"inputs": [
				{
					"internalType": "uint256",
					"name": "_tokenId",
					"type": "uint256"
				}
			],
			"name": "purchaseToken",
			"outputs": [],
			"stateMutability": "nonpayable",
			"type": "function"
		},
		{
			"inputs": [],
			"name": "getSaleTokenList",
			"outputs": [
				{
					"components": [
						{
							"internalType": "uint256",
							"name": "tokenId",
							"type": "uint256"
						},
						{
							"internalType": "uint256",
							"name": "price",
							"type": "uint256"
						}
					],
					"internalType": "struct NFTtrade.TokenInfo[]",
					"name": "",
					"type": "tuple[]"
				}
			],
			"stateMutability": "view",
			"type": "function"
		},
		{
			"inputs": [
				{
					"internalType": "address",
					"name": "_tokenOwner",
					"type": "address"
				}
			],
			"name": "getOwnerToken",
			"outputs": [
				{
					"components": [
						{
							"internalType": "uint256",
							"name": "tokenId",
							"type": "uint256"
						},
						{
							"internalType": "uint256",
							"name": "price",
							"type": "uint256"
						}
					],
					"internalType": "struct NFTtrade.TokenInfo[]",
					"name": "",
					"type": "tuple[]"
				}
			],
			"stateMutability": "view",
			"type": "function"
		},
		{
			"inputs": [
				{
					"internalType": "address",
					"name": "_tokenOwner",
					"type": "address"
				}
			],
			"name": "getLatestToken",
			"outputs": [
				{
					"components": [
						{
							"internalType": "uint256",
							"name": "tokenId",
							"type": "uint256"
						},
						{
							"internalType": "uint256",
							"name": "price",
							"type": "uint256"
						}
					],
					"internalType": "struct NFTtrade.TokenInfo",
					"name": "",
					"type": "tuple"
				}
			],
			"stateMutability": "view",
			"type": "function"
		}
	],
	"bytecode": "0x60806040523480156200001157600080fd5b506040516200150c3803806200150c83398181016040528101906200003791906200012a565b816000806101000a81548173ffffffffffffffffffffffffffffffffffffffff021916908373ffffffffffffffffffffffffffffffffffffffff16021790555080600160006101000a81548173ffffffffffffffffffffffffffffffffffffffff021916908373ffffffffffffffffffffffffffffffffffffffff160217905550505062000171565b600080fd5b600073ffffffffffffffffffffffffffffffffffffffff82169050919050565b6000620000f282620000c5565b9050919050565b6200010481620000e5565b81146200011057600080fd5b50565b6000815190506200012481620000f9565b92915050565b60008060408385031215620001445762000143620000c0565b5b6000620001548582860162000113565b9250506020620001678582860162000113565b9150509250929050565b61138b80620001816000396000f3fe608060405234801561001057600080fd5b50600436106100935760003560e01c8063966c057411610066578063966c057414610122578063a4ad760b14610152578063c2db2c4214610182578063e5afe3e61461019e578063f1dfd2a6146101ce57610093565b80630c8cc5691461009857806311df9995146100c857806347ccca02146100e65780634e4dc98814610104575b600080fd5b6100b260048036038101906100ad9190610cc1565b6101ea565b6040516100bf9190610cfd565b60405180910390f35b6100d061020e565b6040516100dd9190610d97565b60405180910390f35b6100ee610234565b6040516100fb9190610de5565b60405180910390f35b61010c610258565b6040516101199190610eed565b60405180910390f35b61013c60048036038101906101379190610f4d565b61039a565b6040516101499190610eed565b60405180910390f35b61016c60048036038101906101679190610f4d565b6105b7565b6040516101799190610fa9565b60405180910390f35b61019c60048036038101906101979190610cc1565b610742565b005b6101b860048036038101906101b39190610cc1565b6109a9565b6040516101c59190610cfd565b60405180910390f35b6101e860048036038101906101e39190610fc4565b6109c1565b005b600381815481106101fa57600080fd5b906000526020600020016000915090505481565b600160009054906101000a900473ffffffffffffffffffffffffffffffffffffffff1681565b60008054906101000a900473ffffffffffffffffffffffffffffffffffffffff1681565b60606000600380549050116102a2576040517f08c379a000000000000000000000000000000000000000000000000000000000815260040161029990611061565b60405180910390fd5b600060038054905067ffffffffffffffff8111156102c3576102c2611081565b5b6040519080825280602002602001820160405280156102fc57816020015b6102e9610c6c565b8152602001906001900390816102e15790505b50905060005b60038054905081101561039257600060038281548110610325576103246110b0565b5b90600052602060002001549050600060026000838152602001908152602001600020549050604051806040016040528083815260200182815250848481518110610372576103716110b0565b5b60200260200101819052505050808061038a9061110e565b915050610302565b508091505090565b606060008060009054906101000a900473ffffffffffffffffffffffffffffffffffffffff1673ffffffffffffffffffffffffffffffffffffffff166370a08231846040518263ffffffff1660e01b81526004016103f89190611165565b602060405180830381865afa158015610415573d6000803e3d6000fd5b505050506040513d601f19601f820116820180604052508101906104399190611195565b90506000810361044857600080fd5b60008167ffffffffffffffff81111561046457610463611081565b5b60405190808252806020026020018201604052801561049d57816020015b61048a610c6c565b8152602001906001900390816104825790505b50905060005b828110156105ac5760008060009054906101000a900473ffffffffffffffffffffffffffffffffffffffff1673ffffffffffffffffffffffffffffffffffffffff16632f745c5987846040518363ffffffff1660e01b81526004016105099291906111c2565b602060405180830381865afa158015610526573d6000803e3d6000fd5b505050506040513d601f19601f8201168201806040525081019061054a9190611195565b905060006002600083815260200190815260200160002054905060405180604001604052808381526020018281525084848151811061058c5761058b6110b0565b5b6020026020010181905250505080806105a49061110e565b9150506104a3565b508092505050919050565b6105bf610c6c565b60008060009054906101000a900473ffffffffffffffffffffffffffffffffffffffff1673ffffffffffffffffffffffffffffffffffffffff166370a08231846040518263ffffffff1660e01b815260040161061b9190611165565b602060405180830381865afa158015610638573d6000803e3d6000fd5b505050506040513d601f19601f8201168201806040525081019061065c9190611195565b905060008060009054906101000a900473ffffffffffffffffffffffffffffffffffffffff1673ffffffffffffffffffffffffffffffffffffffff16632f745c59856001856106ab91906111eb565b6040518363ffffffff1660e01b81526004016106c89291906111c2565b602060405180830381865afa1580156106e5573d6000803e3d6000fd5b505050506040513d601f19601f820116820180604052508101906107099190611195565b90506000600260008381526020019081526020016000205490506040518060400160405280838152602001828152509350505050919050565b60008060009054906101000a900473ffffffffffffffffffffffffffffffffffffffff1673ffffffffffffffffffffffffffffffffffffffff16636352211e836040518263ffffffff1660e01b815260040161079e9190610cfd565b602060405180830381865afa1580156107bb573d6000803e3d6000fd5b505050506040513d601f19601f820116820180604052508101906107df9190611234565b90503373ffffffffffffffffffffffffffffffffffffffff168173ffffffffffffffffffffffffffffffffffffffff160361081957600080fd5b600060026000848152602001908152602001600020541161083957600080fd5b6002600083815260200190815260200160002054600160009054906101000a900473ffffffffffffffffffffffffffffffffffffffff1673ffffffffffffffffffffffffffffffffffffffff1663bc967075336040518263ffffffff1660e01b81526004016108a89190611165565b602060405180830381865afa1580156108c5573d6000803e3d6000fd5b505050506040513d601f19601f820116820180604052508101906108e99190611195565b116108f357600080fd5b60008054906101000a900473ffffffffffffffffffffffffffffffffffffffff1673ffffffffffffffffffffffffffffffffffffffff166323b872dd8233856040518463ffffffff1660e01b815260040161095093929190611261565b600060405180830381600087803b15801561096a57600080fd5b505af115801561097e573d6000803e3d6000fd5b50505050600060026000848152602001908152602001600020819055506109a482610b90565b505050565b60026020528060005260406000206000915090505481565b60008060009054906101000a900473ffffffffffffffffffffffffffffffffffffffff1673ffffffffffffffffffffffffffffffffffffffff16636352211e846040518263ffffffff1660e01b8152600401610a1d9190610cfd565b602060405180830381865afa158015610a3a573d6000803e3d6000fd5b505050506040513d601f19601f82011682018060405250810190610a5e9190611234565b90503373ffffffffffffffffffffffffffffffffffffffff168173ffffffffffffffffffffffffffffffffffffffff1614610a9857600080fd5b60008211610aa557600080fd5b60008054906101000a900473ffffffffffffffffffffffffffffffffffffffff1673ffffffffffffffffffffffffffffffffffffffff1663e985e9c533306040518363ffffffff1660e01b8152600401610b00929190611298565b602060405180830381865afa158015610b1d573d6000803e3d6000fd5b505050506040513d601f19601f82011682018060405250810190610b4191906112f9565b610b4a57600080fd5b8160026000858152602001908152602001600020819055506003839080600181540180825580915050600190039060005260206000200160009091909190915055505050565b600080600090505b600380549050811015610c61578260038281548110610bba57610bb96110b0565b5b906000526020600020015403610c4e5760036001600380549050610bde91906111eb565b81548110610bef57610bee6110b0565b5b906000526020600020015460038281548110610c0e57610c0d6110b0565b5b90600052602060002001819055506003805480610c2e57610c2d611326565b5b600190038181906000526020600020016000905590556001915050610c67565b8080610c599061110e565b915050610b98565b50600090505b919050565b604051806040016040528060008152602001600081525090565b600080fd5b6000819050919050565b610c9e81610c8b565b8114610ca957600080fd5b50565b600081359050610cbb81610c95565b92915050565b600060208284031215610cd757610cd6610c86565b5b6000610ce584828501610cac565b91505092915050565b610cf781610c8b565b82525050565b6000602082019050610d126000830184610cee565b92915050565b600073ffffffffffffffffffffffffffffffffffffffff82169050919050565b6000819050919050565b6000610d5d610d58610d5384610d18565b610d38565b610d18565b9050919050565b6000610d6f82610d42565b9050919050565b6000610d8182610d64565b9050919050565b610d9181610d76565b82525050565b6000602082019050610dac6000830184610d88565b92915050565b6000610dbd82610d42565b9050919050565b6000610dcf82610db2565b9050919050565b610ddf81610dc4565b82525050565b6000602082019050610dfa6000830184610dd6565b92915050565b600081519050919050565b600082825260208201905092915050565b6000819050602082019050919050565b610e3581610c8b565b82525050565b604082016000820151610e516000850182610e2c565b506020820151610e646020850182610e2c565b50505050565b6000610e768383610e3b565b60408301905092915050565b6000602082019050919050565b6000610e9a82610e00565b610ea48185610e0b565b9350610eaf83610e1c565b8060005b83811015610ee0578151610ec78882610e6a565b9750610ed283610e82565b925050600181019050610eb3565b5085935050505092915050565b60006020820190508181036000830152610f078184610e8f565b905092915050565b6000610f1a82610d18565b9050919050565b610f2a81610f0f565b8114610f3557600080fd5b50565b600081359050610f4781610f21565b92915050565b600060208284031215610f6357610f62610c86565b5b6000610f7184828501610f38565b91505092915050565b604082016000820151610f906000850182610e2c565b506020820151610fa36020850182610e2c565b50505050565b6000604082019050610fbe6000830184610f7a565b92915050565b60008060408385031215610fdb57610fda610c86565b5b6000610fe985828601610cac565b9250506020610ffa85828601610cac565b9150509250929050565b600082825260208201905092915050565b7f656d70747920746f6b656e2073616c6521000000000000000000000000000000600082015250565b600061104b601183611004565b915061105682611015565b602082019050919050565b6000602082019050818103600083015261107a8161103e565b9050919050565b7f4e487b7100000000000000000000000000000000000000000000000000000000600052604160045260246000fd5b7f4e487b7100000000000000000000000000000000000000000000000000000000600052603260045260246000fd5b7f4e487b7100000000000000000000000000000000000000000000000000000000600052601160045260246000fd5b600061111982610c8b565b91507fffffffffffffffffffffffffffffffffffffffffffffffffffffffffffffffff820361114b5761114a6110df565b5b600182019050919050565b61115f81610f0f565b82525050565b600060208201905061117a6000830184611156565b92915050565b60008151905061118f81610c95565b92915050565b6000602082840312156111ab576111aa610c86565b5b60006111b984828501611180565b91505092915050565b60006040820190506111d76000830185611156565b6111e46020830184610cee565b9392505050565b60006111f682610c8b565b915061120183610c8b565b9250828203905081811115611219576112186110df565b5b92915050565b60008151905061122e81610f21565b92915050565b60006020828403121561124a57611249610c86565b5b60006112588482850161121f565b91505092915050565b60006060820190506112766000830186611156565b6112836020830185611156565b6112906040830184610cee565b949350505050565b60006040820190506112ad6000830185611156565b6112ba6020830184611156565b9392505050565b60008115159050919050565b6112d6816112c1565b81146112e157600080fd5b50565b6000815190506112f3816112cd565b92915050565b60006020828403121561130f5761130e610c86565b5b600061131d848285016112e4565b91505092915050565b7f4e487b7100000000000000000000000000000000000000000000000000000000600052603160045260246000fdfea2646970667358221220fc06bf63e238e2918529b35e9bab880564f2e07d18720813e55781402701b4c264736f6c63430008110033",
	"immutableReferences": {},
	"source": "// SPDX-License-Identifier: MIT\r\npragma solidity ^0.8.17;\r\n\r\nimport \"./NftToken.sol\";\r\nimport \"./Token.sol\";\r\ncontract NFTtrade{\r\n    NftToken public nft;\r\n    Token public coin;\r\n    constructor(address _tokenAddress, address _coinAddress){\r\n        nft = NftToken(_tokenAddress);\r\n        coin = Token(payable(_coinAddress));\r\n    }\r\n\r\n    struct TokenInfo{\r\n        uint tokenId;\r\n        uint price;\r\n    }\r\n\r\n    mapping(uint => uint) public tokenPrices;\r\n    uint[] public SaleTokenList;\r\n\r\n    // \r\n    function salesToken(uint _tokenId, uint _price) public{\r\n        address tokenOwner = nft.ownerOf(_tokenId);\r\n        require(tokenOwner == msg.sender);\r\n        require(_price > 0 );\r\n        require(nft.isApprovedForAll(msg.sender, address(this)));\r\n\r\n        tokenPrices[_tokenId] = _price;\r\n        SaleTokenList.push(_tokenId);\r\n    }\r\n\r\n    // NFT\r\n    function purchaseToken(uint _tokenId) public{\r\n        address tokenOwner = nft.ownerOf(_tokenId);\r\n\r\n        require(tokenOwner != msg.sender);\r\n        require(tokenPrices[_tokenId] > 0);\r\n        //  \r\n        require(coin.checkCoinBalance(msg.sender) > tokenPrices[_tokenId]);\r\n        \r\n        nft.transferFrom(tokenOwner, msg.sender, _tokenId);\r\n        tokenPrices[_tokenId] = 0;\r\n        popSaleToken(_tokenId);\r\n    }\r\n\r\n    //  \r\n    function popSaleToken(uint _tokenId) private returns (bool){\r\n        for(uint i = 0; i < SaleTokenList.length; i++){\r\n            if(SaleTokenList[i] == _tokenId){\r\n                SaleTokenList[i] = SaleTokenList[SaleTokenList.length -1];\r\n                SaleTokenList.pop();\r\n                return true;\r\n            }\r\n        }\r\n        return false;\r\n    }\r\n\r\n    //   \r\n    function getSaleTokenList() public view returns(TokenInfo[] memory){\r\n        require(SaleTokenList.length > 0, \"empty token sale!\");\r\n        TokenInfo[] memory list = new TokenInfo[](SaleTokenList.length);\r\n\r\n        for(uint i = 0; i < SaleTokenList.length; i++){\r\n            uint tokenId = SaleTokenList[i];\r\n            uint price = tokenPrices[tokenId];\r\n\r\n            list[i] = TokenInfo(tokenId,price);\r\n        }\r\n\r\n        return list;\r\n    }\r\n\r\n    //   nft \r\n    function getOwnerToken(address _tokenOwner) public view returns (TokenInfo[] memory){\r\n        uint balance = nft.balanceOf(_tokenOwner);\r\n        require(balance != 0);\r\n        TokenInfo[] memory list = new TokenInfo[](balance);\r\n\r\n        for(uint i = 0; i < balance; i++){\r\n            uint tokenId = nft.tokenOfOwnerByIndex(_tokenOwner, i);\r\n            uint price = tokenPrices[tokenId];\r\n\r\n            list[i] = TokenInfo(tokenId,price);\r\n        }\r\n\r\n        return list;\r\n    }\r\n\r\n    //     NFT  view      \r\n    function getLatestToken(address _tokenOwner) public view returns (TokenInfo memory){\r\n        uint balance = nft.balanceOf(_tokenOwner);\r\n        uint tokenId = nft.tokenOfOwnerByIndex(_tokenOwner, balance-1);\r\n        uint price = tokenPrices[tokenId];\r\n\r\n        return TokenInfo(tokenId,price);\r\n    }\r\n}",
	"sourcePath": "C:\\Users\\KGA_030\\Desktop\\class\\NFT_market\\smartContract\\contracts\\NftTrade.sol",
	"compiler": {
		"name": "solc",
		"version": "0.8.17+commit.8df45f5f.Emscripten.clang"
	},
	"schemaVersion": "3.4.11",
	"updatedAt": "2022-12-22T03:38:21.555Z",
	"devdoc": {
		"kind": "dev",
		"methods": {},
		"version": 1
	},
	"userdoc": {
		"kind": "user",
		"methods": {},
		"version": 1
	}
}