{
	"contractName": "NftToken",
	"abi": [
		{
			"inputs": [
				{
					"internalType": "string",
					"name": "_name",
					"type": "string"
				},
				{
					"internalType": "string",
					"name": "_symbol",
					"type": "string"
				},
				{
					"internalType": "uint256",
					"name": "_mintLimit",
					"type": "uint256"
				},
				{
					"internalType": "uint256",
					"name": "_collectionSize",
					"type": "uint256"
				},
				{
					"internalType": "address",
					"name": "_coinCA",
					"type": "address"
				}
			],
			"stateMutability": "nonpayable",
			"type": "constructor"
		},
		{
			"anonymous": false,
			"inputs": [
				{
					"indexed": true,
					"internalType": "address",
					"name": "owner",
					"type": "address"
				},
				{
					"indexed": true,
					"internalType": "address",
					"name": "approved",
					"type": "address"
				},
				{
					"indexed": true,
					"internalType": "uint256",
					"name": "tokenId",
					"type": "uint256"
				}
			],
			"name": "Approval",
			"type": "event"
		},
		{
			"anonymous": false,
			"inputs": [
				{
					"indexed": true,
					"internalType": "address",
					"name": "owner",
					"type": "address"
				},
				{
					"indexed": true,
					"internalType": "address",
					"name": "operator",
					"type": "address"
				},
				{
					"indexed": false,
					"internalType": "bool",
					"name": "approved",
					"type": "bool"
				}
			],
			"name": "ApprovalForAll",
			"type": "event"
		},
		{
			"anonymous": false,
			"inputs": [
				{
					"indexed": true,
					"internalType": "address",
					"name": "previousOwner",
					"type": "address"
				},
				{
					"indexed": true,
					"internalType": "address",
					"name": "newOwner",
					"type": "address"
				}
			],
			"name": "OwnershipTransferred",
			"type": "event"
		},
		{
			"anonymous": false,
			"inputs": [
				{
					"indexed": true,
					"internalType": "address",
					"name": "from",
					"type": "address"
				},
				{
					"indexed": true,
					"internalType": "address",
					"name": "to",
					"type": "address"
				},
				{
					"indexed": true,
					"internalType": "uint256",
					"name": "tokenId",
					"type": "uint256"
				}
			],
			"name": "Transfer",
			"type": "event"
		},
		{
			"inputs": [
				{
					"internalType": "address",
					"name": "to",
					"type": "address"
				},
				{
					"internalType": "uint256",
					"name": "tokenId",
					"type": "uint256"
				}
			],
			"name": "approve",
			"outputs": [],
			"stateMutability": "nonpayable",
			"type": "function"
		},
		{
			"inputs": [
				{
					"internalType": "address",
					"name": "owner",
					"type": "address"
				}
			],
			"name": "balanceOf",
			"outputs": [
				{
					"internalType": "uint256",
					"name": "",
					"type": "uint256"
				}
			],
			"stateMutability": "view",
			"type": "function"
		},
		{
			"inputs": [],
			"name": "coin",
			"outputs": [
				{
					"internalType": "contract Token",
					"name": "",
					"type": "address"
				}
			],
			"stateMutability": "view",
			"type": "function"
		},
		{
			"inputs": [
				{
					"internalType": "uint256",
					"name": "tokenId",
					"type": "uint256"
				}
			],
			"name": "getApproved",
			"outputs": [
				{
					"internalType": "address",
					"name": "",
					"type": "address"
				}
			],
			"stateMutability": "view",
			"type": "function"
		},
		{
			"inputs": [
				{
					"internalType": "address",
					"name": "owner",
					"type": "address"
				},
				{
					"internalType": "address",
					"name": "operator",
					"type": "address"
				}
			],
			"name": "isApprovedForAll",
			"outputs": [
				{
					"internalType": "bool",
					"name": "",
					"type": "bool"
				}
			],
			"stateMutability": "view",
			"type": "function"
		},
		{
			"inputs": [],
			"name": "maxTokenNum",
			"outputs": [
				{
					"internalType": "uint256",
					"name": "",
					"type": "uint256"
				}
			],
			"stateMutability": "view",
			"type": "function"
		},
		{
			"inputs": [
				{
					"internalType": "address",
					"name": "",
					"type": "address"
				}
			],
			"name": "mintCount",
			"outputs": [
				{
					"internalType": "uint256",
					"name": "",
					"type": "uint256"
				}
			],
			"stateMutability": "view",
			"type": "function"
		},
		{
			"inputs": [],
			"name": "mintPrice",
			"outputs": [
				{
					"internalType": "uint256",
					"name": "",
					"type": "uint256"
				}
			],
			"stateMutability": "view",
			"type": "function"
		},
		{
			"inputs": [],
			"name": "name",
			"outputs": [
				{
					"internalType": "string",
					"name": "",
					"type": "string"
				}
			],
			"stateMutability": "view",
			"type": "function"
		},
		{
			"inputs": [],
			"name": "nextOwnerToExplicitlySet",
			"outputs": [
				{
					"internalType": "uint256",
					"name": "",
					"type": "uint256"
				}
			],
			"stateMutability": "view",
			"type": "function"
		},
		{
			"inputs": [],
			"name": "owner",
			"outputs": [
				{
					"internalType": "address",
					"name": "",
					"type": "address"
				}
			],
			"stateMutability": "view",
			"type": "function"
		},
		{
			"inputs": [
				{
					"internalType": "uint256",
					"name": "tokenId",
					"type": "uint256"
				}
			],
			"name": "ownerOf",
			"outputs": [
				{
					"internalType": "address",
					"name": "",
					"type": "address"
				}
			],
			"stateMutability": "view",
			"type": "function"
		},
		{
			"inputs": [],
			"name": "renounceOwnership",
			"outputs": [],
			"stateMutability": "nonpayable",
			"type": "function"
		},
		{
			"inputs": [
				{
					"internalType": "address",
					"name": "from",
					"type": "address"
				},
				{
					"internalType": "address",
					"name": "to",
					"type": "address"
				},
				{
					"internalType": "uint256",
					"name": "tokenId",
					"type": "uint256"
				}
			],
			"name": "safeTransferFrom",
			"outputs": [],
			"stateMutability": "nonpayable",
			"type": "function"
		},
		{
			"inputs": [
				{
					"internalType": "address",
					"name": "from",
					"type": "address"
				},
				{
					"internalType": "address",
					"name": "to",
					"type": "address"
				},
				{
					"internalType": "uint256",
					"name": "tokenId",
					"type": "uint256"
				},
				{
					"internalType": "bytes",
					"name": "_data",
					"type": "bytes"
				}
			],
			"name": "safeTransferFrom",
			"outputs": [],
			"stateMutability": "nonpayable",
			"type": "function"
		},
		{
			"inputs": [
				{
					"internalType": "address",
					"name": "operator",
					"type": "address"
				},
				{
					"internalType": "bool",
					"name": "approved",
					"type": "bool"
				}
			],
			"name": "setApprovalForAll",
			"outputs": [],
			"stateMutability": "nonpayable",
			"type": "function"
		},
		{
			"inputs": [
				{
					"internalType": "bytes4",
					"name": "interfaceId",
					"type": "bytes4"
				}
			],
			"name": "supportsInterface",
			"outputs": [
				{
					"internalType": "bool",
					"name": "",
					"type": "bool"
				}
			],
			"stateMutability": "view",
			"type": "function"
		},
		{
			"inputs": [],
			"name": "symbol",
			"outputs": [
				{
					"internalType": "string",
					"name": "",
					"type": "string"
				}
			],
			"stateMutability": "view",
			"type": "function"
		},
		{
			"inputs": [
				{
					"internalType": "uint256",
					"name": "index",
					"type": "uint256"
				}
			],
			"name": "tokenByIndex",
			"outputs": [
				{
					"internalType": "uint256",
					"name": "",
					"type": "uint256"
				}
			],
			"stateMutability": "view",
			"type": "function"
		},
		{
			"inputs": [
				{
					"internalType": "address",
					"name": "owner",
					"type": "address"
				},
				{
					"internalType": "uint256",
					"name": "index",
					"type": "uint256"
				}
			],
			"name": "tokenOfOwnerByIndex",
			"outputs": [
				{
					"internalType": "uint256",
					"name": "",
					"type": "uint256"
				}
			],
			"stateMutability": "view",
			"type": "function"
		},
		{
			"inputs": [
				{
					"internalType": "uint256",
					"name": "tokenId",
					"type": "uint256"
				}
			],
			"name": "tokenURI",
			"outputs": [
				{
					"internalType": "string",
					"name": "",
					"type": "string"
				}
			],
			"stateMutability": "view",
			"type": "function"
		},
		{
			"inputs": [],
			"name": "totalSupply",
			"outputs": [
				{
					"internalType": "uint256",
					"name": "",
					"type": "uint256"
				}
			],
			"stateMutability": "view",
			"type": "function"
		},
		{
			"inputs": [
				{
					"internalType": "address",
					"name": "from",
					"type": "address"
				},
				{
					"internalType": "address",
					"name": "to",
					"type": "address"
				},
				{
					"internalType": "uint256",
					"name": "tokenId",
					"type": "uint256"
				}
			],
			"name": "transferFrom",
			"outputs": [],
			"stateMutability": "nonpayable",
			"type": "function"
		},
		{
			"inputs": [
				{
					"internalType": "address",
					"name": "newOwner",
					"type": "address"
				}
			],
			"name": "transferOwnership",
			"outputs": [],
			"stateMutability": "nonpayable",
			"type": "function"
		},
		{
			"inputs": [],
			"name": "getMintPrice",
			"outputs": [
				{
					"internalType": "uint256",
					"name": "",
					"type": "uint256"
				}
			],
			"stateMutability": "view",
			"type": "function"
		},
		{
			"inputs": [
				{
					"internalType": "uint256",
					"name": "_mintAmount",
					"type": "uint256"
				}
			],
			"name": "_minting",
			"outputs": [],
			"stateMutability": "nonpayable",
			"type": "function"
		},
		{
			"inputs": [
				{
					"internalType": "address",
					"name": "owner",
					"type": "address"
				}
			],
			"name": "numberMinted",
			"outputs": [
				{
					"internalType": "uint256",
					"name": "",
					"type": "uint256"
				}
			],
			"stateMutability": "view",
			"type": "function"
		}
	],
	"bytecode": "0x60c0604052600060015560006008556103e8600a556040518060400160405280601f81526020017f687474703a2f2f6c6f63616c686f73743a383030302f6d657461446174612f00815250600e90816200005a91906200050f565b503480156200006857600080fd5b5060405162004ad738038062004ad783398181016040528101906200008e9190620007f0565b84848484620000b2620000a6620001c960201b60201c565b620001d160201b60201c565b60008111620000f8576040517f08c379a0000000000000000000000000000000000000000000000000000000008152600401620000ef906200093d565b60405180910390fd5b600082116200013e576040517f08c379a00000000000000000000000000000000000000000000000000000000081526004016200013590620009d5565b60405180910390fd5b83600290816200014f91906200050f565b5082600390816200016191906200050f565b508160a0818152505080608081815250505050505080600c60006101000a81548173ffffffffffffffffffffffffffffffffffffffff021916908373ffffffffffffffffffffffffffffffffffffffff16021790555082600b819055505050505050620009f7565b600033905090565b60008060009054906101000a900473ffffffffffffffffffffffffffffffffffffffff169050816000806101000a81548173ffffffffffffffffffffffffffffffffffffffff021916908373ffffffffffffffffffffffffffffffffffffffff1602179055508173ffffffffffffffffffffffffffffffffffffffff168173ffffffffffffffffffffffffffffffffffffffff167f8be0079c531659141344cd1fd0a4f28419497f9722a3daafe3b4186f6b6457e060405160405180910390a35050565b600081519050919050565b7f4e487b7100000000000000000000000000000000000000000000000000000000600052604160045260246000fd5b7f4e487b7100000000000000000000000000000000000000000000000000000000600052602260045260246000fd5b600060028204905060018216806200031757607f821691505b6020821081036200032d576200032c620002cf565b5b50919050565b60008190508160005260206000209050919050565b60006020601f8301049050919050565b600082821b905092915050565b600060088302620003977fffffffffffffffffffffffffffffffffffffffffffffffffffffffffffffffff8262000358565b620003a3868362000358565b95508019841693508086168417925050509392505050565b6000819050919050565b6000819050919050565b6000620003f0620003ea620003e484620003bb565b620003c5565b620003bb565b9050919050565b6000819050919050565b6200040c83620003cf565b620004246200041b82620003f7565b84845462000365565b825550505050565b600090565b6200043b6200042c565b6200044881848462000401565b505050565b5b8181101562000470576200046460008262000431565b6001810190506200044e565b5050565b601f821115620004bf57620004898162000333565b620004948462000348565b81016020851015620004a4578190505b620004bc620004b38562000348565b8301826200044d565b50505b505050565b600082821c905092915050565b6000620004e460001984600802620004c4565b1980831691505092915050565b6000620004ff8383620004d1565b9150826002028217905092915050565b6200051a8262000295565b67ffffffffffffffff811115620005365762000535620002a0565b5b620005428254620002fe565b6200054f82828562000474565b600060209050601f83116001811462000587576000841562000572578287015190505b6200057e8582620004f1565b865550620005ee565b601f198416620005978662000333565b60005b82811015620005c1578489015182556001820191506020850194506020810190506200059a565b86831015620005e15784890151620005dd601f891682620004d1565b8355505b6001600288020188555050505b505050505050565b6000604051905090565b600080fd5b600080fd5b600080fd5b600080fd5b6000601f19601f8301169050919050565b620006308262000614565b810181811067ffffffffffffffff82111715620006525762000651620002a0565b5b80604052505050565b600062000667620005f6565b905062000675828262000625565b919050565b600067ffffffffffffffff821115620006985762000697620002a0565b5b620006a38262000614565b9050602081019050919050565b60005b83811015620006d0578082015181840152602081019050620006b3565b60008484015250505050565b6000620006f3620006ed846200067a565b6200065b565b9050828152602081018484840111156200071257620007116200060f565b5b6200071f848285620006b0565b509392505050565b600082601f8301126200073f576200073e6200060a565b5b815162000751848260208601620006dc565b91505092915050565b6200076581620003bb565b81146200077157600080fd5b50565b60008151905062000785816200075a565b92915050565b600073ffffffffffffffffffffffffffffffffffffffff82169050919050565b6000620007b8826200078b565b9050919050565b620007ca81620007ab565b8114620007d657600080fd5b50565b600081519050620007ea81620007bf565b92915050565b600080600080600060a086880312156200080f576200080e62000600565b5b600086015167ffffffffffffffff81111562000830576200082f62000605565b5b6200083e8882890162000727565b955050602086015167ffffffffffffffff81111562000862576200086162000605565b5b620008708882890162000727565b9450506040620008838882890162000774565b9350506060620008968882890162000774565b9250506080620008a988828901620007d9565b9150509295509295909350565b600082825260208201905092915050565b7f455243373231413a20636f6c6c656374696f6e206d757374206861766520612060008201527f6e6f6e7a65726f20737570706c79000000000000000000000000000000000000602082015250565b600062000925602e83620008b6565b91506200093282620008c7565b604082019050919050565b60006020820190508181036000830152620009588162000916565b9050919050565b7f455243373231413a206d61782062617463682073697a65206d7573742062652060008201527f6e6f6e7a65726f00000000000000000000000000000000000000000000000000602082015250565b6000620009bd602783620008b6565b9150620009ca826200095f565b604082019050919050565b60006020820190508181036000830152620009f081620009ae565b9050919050565b60805160a0516140ac62000a2b60003960008181611b2301528181611b4c01526122ce01526000610dbf01526140ac6000f3fe608060405234801561001057600080fd5b50600436106101a95760003560e01c8063715018a6116100f9578063b88d4fde11610097578063dc33e68111610071578063dc33e681146104be578063e985e9c5146104ee578063ed9ec8881461051e578063f2fde38b1461054e576101a9565b8063b88d4fde14610454578063c87b56dd14610470578063d7224ba0146104a0576101a9565b806395d89b41116100d357806395d89b41146103e0578063998c9b88146103fe578063a22cb4651461041a578063a7f93ebd14610436576101a9565b8063715018a61461039a57806375c9f351146103a45780638da5cb5b146103c2576101a9565b806323b872dd116101665780634f6ccce7116101405780634f6ccce7146102ec5780636352211e1461031c5780636817c76c1461034c57806370a082311461036a576101a9565b806323b872dd146102845780632f745c59146102a057806342842e0e146102d0576101a9565b806301ffc9a7146101ae57806306fdde03146101de578063081812fc146101fc578063095ea7b31461022c57806311df99951461024857806318160ddd14610266575b600080fd5b6101c860048036038101906101c39190612908565b61056a565b6040516101d59190612950565b60405180910390f35b6101e66106b4565b6040516101f391906129fb565b60405180910390f35b61021660048036038101906102119190612a53565b610746565b6040516102239190612ac1565b60405180910390f35b61024660048036038101906102419190612b08565b6107cb565b005b6102506108e3565b60405161025d9190612ba7565b60405180910390f35b61026e610909565b60405161027b9190612bd1565b60405180910390f35b61029e60048036038101906102999190612bec565b610913565b005b6102ba60048036038101906102b59190612b08565b610923565b6040516102c79190612bd1565b60405180910390f35b6102ea60048036038101906102e59190612bec565b610b1f565b005b61030660048036038101906103019190612a53565b610b3f565b6040516103139190612bd1565b60405180910390f35b61033660048036038101906103319190612a53565b610b92565b6040516103439190612ac1565b60405180910390f35b610354610ba8565b6040516103619190612bd1565b60405180910390f35b610384600480360381019061037f9190612c3f565b610bae565b6040516103919190612bd1565b60405180910390f35b6103a2610c96565b005b6103ac610caa565b6040516103b99190612bd1565b60405180910390f35b6103ca610cb0565b6040516103d79190612ac1565b60405180910390f35b6103e8610cd9565b6040516103f591906129fb565b60405180910390f35b61041860048036038101906104139190612a53565b610d6b565b005b610434600480360381019061042f9190612c98565b611012565b005b61043e611192565b60405161044b9190612bd1565b60405180910390f35b61046e60048036038101906104699190612e0d565b61119c565b005b61048a60048036038101906104859190612a53565b6111f8565b60405161049791906129fb565b60405180910390f35b6104a861129f565b6040516104b59190612bd1565b60405180910390f35b6104d860048036038101906104d39190612c3f565b6112a5565b6040516104e59190612bd1565b60405180910390f35b61050860048036038101906105039190612e90565b6112b7565b6040516105159190612950565b60405180910390f35b61053860048036038101906105339190612c3f565b61134b565b6040516105459190612bd1565b60405180910390f35b61056860048036038101906105639190612c3f565b611363565b005b60007f80ac58cd000000000000000000000000000000000000000000000000000000007bffffffffffffffffffffffffffffffffffffffffffffffffffffffff1916827bffffffffffffffffffffffffffffffffffffffffffffffffffffffff1916148061063557507f5b5e139f000000000000000000000000000000000000000000000000000000007bffffffffffffffffffffffffffffffffffffffffffffffffffffffff1916827bffffffffffffffffffffffffffffffffffffffffffffffffffffffff1916145b8061069d57507f780e9d63000000000000000000000000000000000000000000000000000000007bffffffffffffffffffffffffffffffffffffffffffffffffffffffff1916827bffffffffffffffffffffffffffffffffffffffffffffffffffffffff1916145b806106ad57506106ac826113e6565b5b9050919050565b6060600280546106c390612eff565b80601f01602080910402602001604051908101604052809291908181526020018280546106ef90612eff565b801561073c5780601f106107115761010080835404028352916020019161073c565b820191906000526020600020905b81548152906001019060200180831161071f57829003601f168201915b5050505050905090565b600061075182611450565b610790576040517f08c379a000000000000000000000000000000000000000000000000000000000815260040161078790612fa2565b60405180910390fd5b6006600083815260200190815260200160002060009054906101000a900473ffffffffffffffffffffffffffffffffffffffff169050919050565b60006107d682610b92565b90508073ffffffffffffffffffffffffffffffffffffffff168373ffffffffffffffffffffffffffffffffffffffff1603610846576040517f08c379a000000000000000000000000000000000000000000000000000000000815260040161083d90613034565b60405180910390fd5b8073ffffffffffffffffffffffffffffffffffffffff1661086561145e565b73ffffffffffffffffffffffffffffffffffffffff16148061089457506108938161088e61145e565b6112b7565b5b6108d3576040517f08c379a00000000000000000000000000000000000000000000000000000000081526004016108ca906130c6565b60405180910390fd5b6108de838383611466565b505050565b600c60009054906101000a900473ffffffffffffffffffffffffffffffffffffffff1681565b6000600154905090565b61091e838383611518565b505050565b600061092e83610bae565b821061096f576040517f08c379a000000000000000000000000000000000000000000000000000000000815260040161096690613158565b60405180910390fd5b6000610979610909565b905060008060005b83811015610add576000600460008381526020019081526020016000206040518060400160405290816000820160009054906101000a900473ffffffffffffffffffffffffffffffffffffffff1673ffffffffffffffffffffffffffffffffffffffff1673ffffffffffffffffffffffffffffffffffffffff1681526020016000820160149054906101000a900467ffffffffffffffff1667ffffffffffffffff1667ffffffffffffffff16815250509050600073ffffffffffffffffffffffffffffffffffffffff16816000015173ffffffffffffffffffffffffffffffffffffffff1614610a7357806000015192505b8773ffffffffffffffffffffffffffffffffffffffff168373ffffffffffffffffffffffffffffffffffffffff1603610ac957868403610aba578195505050505050610b19565b8380610ac5906131a7565b9450505b508080610ad5906131a7565b915050610981565b506040517f08c379a0000000000000000000000000000000000000000000000000000000008152600401610b1090613261565b60405180910390fd5b92915050565b610b3a8383836040518060200160405280600081525061119c565b505050565b6000610b49610909565b8210610b8a576040517f08c379a0000000000000000000000000000000000000000000000000000000008152600401610b81906132f3565b60405180910390fd5b819050919050565b6000610b9d82611acf565b600001519050919050565b600a5481565b60008073ffffffffffffffffffffffffffffffffffffffff168273ffffffffffffffffffffffffffffffffffffffff1603610c1e576040517f08c379a0000000000000000000000000000000000000000000000000000000008152600401610c1590613385565b60405180910390fd5b600560008373ffffffffffffffffffffffffffffffffffffffff1673ffffffffffffffffffffffffffffffffffffffff16815260200190815260200160002060000160009054906101000a90046fffffffffffffffffffffffffffffffff166fffffffffffffffffffffffffffffffff169050919050565b610c9e611cd2565b610ca86000611d50565b565b60095481565b60008060009054906101000a900473ffffffffffffffffffffffffffffffffffffffff16905090565b606060038054610ce890612eff565b80601f0160208091040260200160405190810160405280929190818152602001828054610d1490612eff565b8015610d615780601f10610d3657610100808354040283529160200191610d61565b820191906000526020600020905b815481529060010190602001808311610d4457829003601f168201915b5050505050905090565b80600081118015610d7e5750600b548111155b610dbd576040517f08c379a0000000000000000000000000000000000000000000000000000000008152600401610db4906133f1565b60405180910390fd5b7f000000000000000000000000000000000000000000000000000000000000000081610de7610909565b610df19190613411565b1115610e32576040517f08c379a0000000000000000000000000000000000000000000000000000000008152600401610e2990613491565b60405180910390fd5b600b5481610e3f336112a5565b610e499190613411565b1115610e8a576040517f08c379a0000000000000000000000000000000000000000000000000000000008152600401610e81906134fd565b60405180910390fd5b81600a54610e98919061351d565b600c60009054906101000a900473ffffffffffffffffffffffffffffffffffffffff1673ffffffffffffffffffffffffffffffffffffffff166370a08231336040518263ffffffff1660e01b8152600401610ef39190612ac1565b602060405180830381865afa158015610f10573d6000803e3d6000fd5b505050506040513d601f19601f82011682018060405250810190610f349190613574565b1015610f75576040517f08c379a0000000000000000000000000000000000000000000000000000000008152600401610f6c906135ed565b60405180910390fd5b600b5482600d60003373ffffffffffffffffffffffffffffffffffffffff1673ffffffffffffffffffffffffffffffffffffffff16815260200190815260200160002054610fc39190613411565b1115611004576040517f08c379a0000000000000000000000000000000000000000000000000000000008152600401610ffb90613659565b60405180910390fd5b61100e3383611e14565b5050565b61101a61145e565b73ffffffffffffffffffffffffffffffffffffffff168273ffffffffffffffffffffffffffffffffffffffff1603611087576040517f08c379a000000000000000000000000000000000000000000000000000000000815260040161107e906136c5565b60405180910390fd5b806007600061109461145e565b73ffffffffffffffffffffffffffffffffffffffff1673ffffffffffffffffffffffffffffffffffffffff16815260200190815260200160002060008473ffffffffffffffffffffffffffffffffffffffff1673ffffffffffffffffffffffffffffffffffffffff16815260200190815260200160002060006101000a81548160ff0219169083151502179055508173ffffffffffffffffffffffffffffffffffffffff1661114161145e565b73ffffffffffffffffffffffffffffffffffffffff167f17307eab39ab6107e8899845ad3d59bd9653f200f220920489ca2b5937696c31836040516111869190612950565b60405180910390a35050565b6000600a54905090565b6111a7848484611518565b6111b384848484611e32565b6111f2576040517f08c379a00000000000000000000000000000000000000000000000000000000081526004016111e990613757565b60405180910390fd5b50505050565b606061120382611450565b611242576040517f08c379a0000000000000000000000000000000000000000000000000000000008152600401611239906137e9565b60405180910390fd5b600061124c611fb9565b9050600081511161126c5760405180602001604052806000815250611297565b806112768461204b565b604051602001611287929190613845565b6040516020818303038152906040525b915050919050565b60085481565b60006112b082612119565b9050919050565b6000600760008473ffffffffffffffffffffffffffffffffffffffff1673ffffffffffffffffffffffffffffffffffffffff16815260200190815260200160002060008373ffffffffffffffffffffffffffffffffffffffff1673ffffffffffffffffffffffffffffffffffffffff16815260200190815260200160002060009054906101000a900460ff16905092915050565b600d6020528060005260406000206000915090505481565b61136b611cd2565b600073ffffffffffffffffffffffffffffffffffffffff168173ffffffffffffffffffffffffffffffffffffffff16036113da576040517f08c379a00000000000000000000000000000000000000000000000000000000081526004016113d1906138db565b60405180910390fd5b6113e381611d50565b50565b60007f01ffc9a7000000000000000000000000000000000000000000000000000000007bffffffffffffffffffffffffffffffffffffffffffffffffffffffff1916827bffffffffffffffffffffffffffffffffffffffffffffffffffffffff1916149050919050565b600060015482109050919050565b600033905090565b826006600084815260200190815260200160002060006101000a81548173ffffffffffffffffffffffffffffffffffffffff021916908373ffffffffffffffffffffffffffffffffffffffff160217905550818373ffffffffffffffffffffffffffffffffffffffff168273ffffffffffffffffffffffffffffffffffffffff167f8c5be1e5ebec7d5bd14f71427d1e84f3dd0314c0f7b2291e5b200ac8c7c3b92560405160405180910390a4505050565b600061152382611acf565b90506000816000015173ffffffffffffffffffffffffffffffffffffffff1661154a61145e565b73ffffffffffffffffffffffffffffffffffffffff1614806115a6575061156f61145e565b73ffffffffffffffffffffffffffffffffffffffff1661158e84610746565b73ffffffffffffffffffffffffffffffffffffffff16145b806115c257506115c182600001516115bc61145e565b6112b7565b5b905080611604576040517f08c379a00000000000000000000000000000000000000000000000000000000081526004016115fb9061396d565b60405180910390fd5b8473ffffffffffffffffffffffffffffffffffffffff16826000015173ffffffffffffffffffffffffffffffffffffffff1614611676576040517f08c379a000000000000000000000000000000000000000000000000000000000815260040161166d906139ff565b60405180910390fd5b600073ffffffffffffffffffffffffffffffffffffffff168473ffffffffffffffffffffffffffffffffffffffff16036116e5576040517f08c379a00000000000000000000000000000000000000000000000000000000081526004016116dc90613a91565b60405180910390fd5b6116f28585856001612201565b6117026000848460000151611466565b6001600560008773ffffffffffffffffffffffffffffffffffffffff1673ffffffffffffffffffffffffffffffffffffffff16815260200190815260200160002060000160008282829054906101000a90046fffffffffffffffffffffffffffffffff166117709190613acd565b92506101000a8154816fffffffffffffffffffffffffffffffff02191690836fffffffffffffffffffffffffffffffff1602179055506001600560008673ffffffffffffffffffffffffffffffffffffffff1673ffffffffffffffffffffffffffffffffffffffff16815260200190815260200160002060000160008282829054906101000a90046fffffffffffffffffffffffffffffffff166118149190613b11565b92506101000a8154816fffffffffffffffffffffffffffffffff02191690836fffffffffffffffffffffffffffffffff16021790555060405180604001604052808573ffffffffffffffffffffffffffffffffffffffff1681526020014267ffffffffffffffff168152506004600085815260200190815260200160002060008201518160000160006101000a81548173ffffffffffffffffffffffffffffffffffffffff021916908373ffffffffffffffffffffffffffffffffffffffff16021790555060208201518160000160146101000a81548167ffffffffffffffff021916908367ffffffffffffffff160217905550905050600060018461191a9190613411565b9050600073ffffffffffffffffffffffffffffffffffffffff166004600083815260200190815260200160002060000160009054906101000a900473ffffffffffffffffffffffffffffffffffffffff1673ffffffffffffffffffffffffffffffffffffffff1603611a5f5761198f81611450565b15611a5e576040518060400160405280846000015173ffffffffffffffffffffffffffffffffffffffff168152602001846020015167ffffffffffffffff168152506004600083815260200190815260200160002060008201518160000160006101000a81548173ffffffffffffffffffffffffffffffffffffffff021916908373ffffffffffffffffffffffffffffffffffffffff16021790555060208201518160000160146101000a81548167ffffffffffffffff021916908367ffffffffffffffff1602179055509050505b5b838573ffffffffffffffffffffffffffffffffffffffff168773ffffffffffffffffffffffffffffffffffffffff167fddf252ad1be2c89b69c2b068fc378daa952ba7f163c4a11628f55a4df523b3ef60405160405180910390a4611ac78686866001612207565b505050505050565b611ad7612862565b611ae082611450565b611b1f576040517f08c379a0000000000000000000000000000000000000000000000000000000008152600401611b1690613bc7565b60405180910390fd5b60007f00000000000000000000000000000000000000000000000000000000000000008310611b835760017f000000000000000000000000000000000000000000000000000000000000000084611b769190613be7565b611b809190613411565b90505b60008390505b818110611c91576000600460008381526020019081526020016000206040518060400160405290816000820160009054906101000a900473ffffffffffffffffffffffffffffffffffffffff1673ffffffffffffffffffffffffffffffffffffffff1673ffffffffffffffffffffffffffffffffffffffff1681526020016000820160149054906101000a900467ffffffffffffffff1667ffffffffffffffff1667ffffffffffffffff16815250509050600073ffffffffffffffffffffffffffffffffffffffff16816000015173ffffffffffffffffffffffffffffffffffffffff1614611c7d57809350505050611ccd565b508080611c8990613c1b565b915050611b89565b506040517f08c379a0000000000000000000000000000000000000000000000000000000008152600401611cc490613cb6565b60405180910390fd5b919050565b611cda61145e565b73ffffffffffffffffffffffffffffffffffffffff16611cf8610cb0565b73ffffffffffffffffffffffffffffffffffffffff1614611d4e576040517f08c379a0000000000000000000000000000000000000000000000000000000008152600401611d4590613d22565b60405180910390fd5b565b60008060009054906101000a900473ffffffffffffffffffffffffffffffffffffffff169050816000806101000a81548173ffffffffffffffffffffffffffffffffffffffff021916908373ffffffffffffffffffffffffffffffffffffffff1602179055508173ffffffffffffffffffffffffffffffffffffffff168173ffffffffffffffffffffffffffffffffffffffff167f8be0079c531659141344cd1fd0a4f28419497f9722a3daafe3b4186f6b6457e060405160405180910390a35050565b611e2e82826040518060200160405280600081525061220d565b5050565b6000611e538473ffffffffffffffffffffffffffffffffffffffff166126ec565b15611fac578373ffffffffffffffffffffffffffffffffffffffff1663150b7a02611e7c61145e565b8786866040518563ffffffff1660e01b8152600401611e9e9493929190613d97565b6020604051808303816000875af1925050508015611eda57506040513d601f19601f82011682018060405250810190611ed79190613df8565b60015b611f5c573d8060008114611f0a576040519150601f19603f3d011682016040523d82523d6000602084013e611f0f565b606091505b506000815103611f54576040517f08c379a0000000000000000000000000000000000000000000000000000000008152600401611f4b90613757565b60405180910390fd5b805181602001fd5b63150b7a0260e01b7bffffffffffffffffffffffffffffffffffffffffffffffffffffffff1916817bffffffffffffffffffffffffffffffffffffffffffffffffffffffff191614915050611fb1565b600190505b949350505050565b6060600e8054611fc890612eff565b80601f0160208091040260200160405190810160405280929190818152602001828054611ff490612eff565b80156120415780601f1061201657610100808354040283529160200191612041565b820191906000526020600020905b81548152906001019060200180831161202457829003601f168201915b5050505050905090565b60606000600161205a8461270f565b01905060008167ffffffffffffffff81111561207957612078612ce2565b5b6040519080825280601f01601f1916602001820160405280156120ab5781602001600182028036833780820191505090505b509050600082602001820190505b60011561210e578080600190039150507f3031323334353637383961626364656600000000000000000000000000000000600a86061a8153600a858161210257612101613e25565b5b049450600085036120b9575b819350505050919050565b60008073ffffffffffffffffffffffffffffffffffffffff168273ffffffffffffffffffffffffffffffffffffffff1603612189576040517f08c379a000000000000000000000000000000000000000000000000000000000815260040161218090613ec6565b60405180910390fd5b600560008373ffffffffffffffffffffffffffffffffffffffff1673ffffffffffffffffffffffffffffffffffffffff16815260200190815260200160002060000160109054906101000a90046fffffffffffffffffffffffffffffffff166fffffffffffffffffffffffffffffffff169050919050565b50505050565b50505050565b60006001549050600073ffffffffffffffffffffffffffffffffffffffff168473ffffffffffffffffffffffffffffffffffffffff1603612283576040517f08c379a000000000000000000000000000000000000000000000000000000000815260040161227a90613f58565b60405180910390fd5b61228c81611450565b156122cc576040517f08c379a00000000000000000000000000000000000000000000000000000000081526004016122c390613fc4565b60405180910390fd5b7f000000000000000000000000000000000000000000000000000000000000000083111561232f576040517f08c379a000000000000000000000000000000000000000000000000000000000815260040161232690614056565b60405180910390fd5b61233c6000858386612201565b6000600560008673ffffffffffffffffffffffffffffffffffffffff1673ffffffffffffffffffffffffffffffffffffffff1681526020019081526020016000206040518060400160405290816000820160009054906101000a90046fffffffffffffffffffffffffffffffff166fffffffffffffffffffffffffffffffff166fffffffffffffffffffffffffffffffff1681526020016000820160109054906101000a90046fffffffffffffffffffffffffffffffff166fffffffffffffffffffffffffffffffff166fffffffffffffffffffffffffffffffff1681525050905060405180604001604052808583600001516124399190613b11565b6fffffffffffffffffffffffffffffffff1681526020018583602001516124609190613b11565b6fffffffffffffffffffffffffffffffff16815250600560008773ffffffffffffffffffffffffffffffffffffffff1673ffffffffffffffffffffffffffffffffffffffff16815260200190815260200160002060008201518160000160006101000a8154816fffffffffffffffffffffffffffffffff02191690836fffffffffffffffffffffffffffffffff16021790555060208201518160000160106101000a8154816fffffffffffffffffffffffffffffffff02191690836fffffffffffffffffffffffffffffffff16021790555090505060405180604001604052808673ffffffffffffffffffffffffffffffffffffffff1681526020014267ffffffffffffffff168152506004600084815260200190815260200160002060008201518160000160006101000a81548173ffffffffffffffffffffffffffffffffffffffff021916908373ffffffffffffffffffffffffffffffffffffffff16021790555060208201518160000160146101000a81548167ffffffffffffffff021916908367ffffffffffffffff160217905550905050600082905060005b858110156126cf57818773ffffffffffffffffffffffffffffffffffffffff16600073ffffffffffffffffffffffffffffffffffffffff167fddf252ad1be2c89b69c2b068fc378daa952ba7f163c4a11628f55a4df523b3ef60405160405180910390a461266f6000888488611e32565b6126ae576040517f08c379a00000000000000000000000000000000000000000000000000000000081526004016126a590613757565b60405180910390fd5b81806126b9906131a7565b92505080806126c7906131a7565b9150506125fe565b50806001819055506126e46000878588612207565b505050505050565b6000808273ffffffffffffffffffffffffffffffffffffffff163b119050919050565b600080600090507a184f03e93ff9f4daa797ed6e38ed64bf6a1f010000000000000000831061276d577a184f03e93ff9f4daa797ed6e38ed64bf6a1f010000000000000000838161276357612762613e25565b5b0492506040810190505b6d04ee2d6d415b85acef810000000083106127aa576d04ee2d6d415b85acef810000000083816127a05761279f613e25565b5b0492506020810190505b662386f26fc1000083106127d957662386f26fc1000083816127cf576127ce613e25565b5b0492506010810190505b6305f5e1008310612802576305f5e10083816127f8576127f7613e25565b5b0492506008810190505b612710831061282757612710838161281d5761281c613e25565b5b0492506004810190505b6064831061284a57606483816128405761283f613e25565b5b0492506002810190505b600a8310612859576001810190505b80915050919050565b6040518060400160405280600073ffffffffffffffffffffffffffffffffffffffff168152602001600067ffffffffffffffff1681525090565b6000604051905090565b600080fd5b600080fd5b60007fffffffff0000000000000000000000000000000000000000000000000000000082169050919050565b6128e5816128b0565b81146128f057600080fd5b50565b600081359050612902816128dc565b92915050565b60006020828403121561291e5761291d6128a6565b5b600061292c848285016128f3565b91505092915050565b60008115159050919050565b61294a81612935565b82525050565b60006020820190506129656000830184612941565b92915050565b600081519050919050565b600082825260208201905092915050565b60005b838110156129a557808201518184015260208101905061298a565b60008484015250505050565b6000601f19601f8301169050919050565b60006129cd8261296b565b6129d78185612976565b93506129e7818560208601612987565b6129f0816129b1565b840191505092915050565b60006020820190508181036000830152612a1581846129c2565b905092915050565b6000819050919050565b612a3081612a1d565b8114612a3b57600080fd5b50565b600081359050612a4d81612a27565b92915050565b600060208284031215612a6957612a686128a6565b5b6000612a7784828501612a3e565b91505092915050565b600073ffffffffffffffffffffffffffffffffffffffff82169050919050565b6000612aab82612a80565b9050919050565b612abb81612aa0565b82525050565b6000602082019050612ad66000830184612ab2565b92915050565b612ae581612aa0565b8114612af057600080fd5b50565b600081359050612b0281612adc565b92915050565b60008060408385031215612b1f57612b1e6128a6565b5b6000612b2d85828601612af3565b9250506020612b3e85828601612a3e565b9150509250929050565b6000819050919050565b6000612b6d612b68612b6384612a80565b612b48565b612a80565b9050919050565b6000612b7f82612b52565b9050919050565b6000612b9182612b74565b9050919050565b612ba181612b86565b82525050565b6000602082019050612bbc6000830184612b98565b92915050565b612bcb81612a1d565b82525050565b6000602082019050612be66000830184612bc2565b92915050565b600080600060608486031215612c0557612c046128a6565b5b6000612c1386828701612af3565b9350506020612c2486828701612af3565b9250506040612c3586828701612a3e565b9150509250925092565b600060208284031215612c5557612c546128a6565b5b6000612c6384828501612af3565b91505092915050565b612c7581612935565b8114612c8057600080fd5b50565b600081359050612c9281612c6c565b92915050565b60008060408385031215612caf57612cae6128a6565b5b6000612cbd85828601612af3565b9250506020612cce85828601612c83565b9150509250929050565b600080fd5b600080fd5b7f4e487b7100000000000000000000000000000000000000000000000000000000600052604160045260246000fd5b612d1a826129b1565b810181811067ffffffffffffffff82111715612d3957612d38612ce2565b5b80604052505050565b6000612d4c61289c565b9050612d588282612d11565b919050565b600067ffffffffffffffff821115612d7857612d77612ce2565b5b612d81826129b1565b9050602081019050919050565b82818337600083830152505050565b6000612db0612dab84612d5d565b612d42565b905082815260208101848484011115612dcc57612dcb612cdd565b5b612dd7848285612d8e565b509392505050565b600082601f830112612df457612df3612cd8565b5b8135612e04848260208601612d9d565b91505092915050565b60008060008060808587031215612e2757612e266128a6565b5b6000612e3587828801612af3565b9450506020612e4687828801612af3565b9350506040612e5787828801612a3e565b925050606085013567ffffffffffffffff811115612e7857612e776128ab565b5b612e8487828801612ddf565b91505092959194509250565b60008060408385031215612ea757612ea66128a6565b5b6000612eb585828601612af3565b9250506020612ec685828601612af3565b9150509250929050565b7f4e487b7100000000000000000000000000000000000000000000000000000000600052602260045260246000fd5b60006002820490506001821680612f1757607f821691505b602082108103612f2a57612f29612ed0565b5b50919050565b7f455243373231413a20617070726f76656420717565727920666f72206e6f6e6560008201527f78697374656e7420746f6b656e00000000000000000000000000000000000000602082015250565b6000612f8c602d83612976565b9150612f9782612f30565b604082019050919050565b60006020820190508181036000830152612fbb81612f7f565b9050919050565b7f455243373231413a20617070726f76616c20746f2063757272656e74206f776e60008201527f6572000000000000000000000000000000000000000000000000000000000000602082015250565b600061301e602283612976565b915061302982612fc2565b604082019050919050565b6000602082019050818103600083015261304d81613011565b9050919050565b7f455243373231413a20617070726f76652063616c6c6572206973206e6f74206f60008201527f776e6572206e6f7220617070726f76656420666f7220616c6c00000000000000602082015250565b60006130b0603983612976565b91506130bb82613054565b604082019050919050565b600060208201905081810360008301526130df816130a3565b9050919050565b7f455243373231413a206f776e657220696e646578206f7574206f6620626f756e60008201527f6473000000000000000000000000000000000000000000000000000000000000602082015250565b6000613142602283612976565b915061314d826130e6565b604082019050919050565b6000602082019050818103600083015261317181613135565b9050919050565b7f4e487b7100000000000000000000000000000000000000000000000000000000600052601160045260246000fd5b60006131b282612a1d565b91507fffffffffffffffffffffffffffffffffffffffffffffffffffffffffffffffff82036131e4576131e3613178565b5b600182019050919050565b7f455243373231413a20756e61626c6520746f2067657420746f6b656e206f662060008201527f6f776e657220627920696e646578000000000000000000000000000000000000602082015250565b600061324b602e83612976565b9150613256826131ef565b604082019050919050565b6000602082019050818103600083015261327a8161323e565b9050919050565b7f455243373231413a20676c6f62616c20696e646578206f7574206f6620626f7560008201527f6e64730000000000000000000000000000000000000000000000000000000000602082015250565b60006132dd602383612976565b91506132e882613281565b604082019050919050565b6000602082019050818103600083015261330c816132d0565b9050919050565b7f455243373231413a2062616c616e636520717565727920666f7220746865207a60008201527f65726f2061646472657373000000000000000000000000000000000000000000602082015250565b600061336f602b83612976565b915061337a82613313565b604082019050919050565b6000602082019050818103600083015261339e81613362565b9050919050565b7f496e76616c6964206d696e7420616d6f756e7421000000000000000000000000600082015250565b60006133db601483612976565b91506133e6826133a5565b602082019050919050565b6000602082019050818103600083015261340a816133ce565b9050919050565b600061341c82612a1d565b915061342783612a1d565b925082820190508082111561343f5761343e613178565b5b92915050565b7f4d617820737570706c7920657865656465642100000000000000000000000000600082015250565b600061347b601383612976565b915061348682613445565b602082019050919050565b600060208201905081810360008301526134aa8161346e565b9050919050565b7f43616e2774206d696e742074686973206d616e79000000000000000000000000600082015250565b60006134e7601483612976565b91506134f2826134b1565b602082019050919050565b60006020820190508181036000830152613516816134da565b9050919050565b600061352882612a1d565b915061353383612a1d565b925082820261354181612a1d565b9150828204841483151761355857613557613178565b5b5092915050565b60008151905061356e81612a27565b92915050565b60006020828403121561358a576135896128a6565b5b60006135988482850161355f565b91505092915050565b7f496e73756666696369656e742066756e64732100000000000000000000000000600082015250565b60006135d7601383612976565b91506135e2826135a1565b602082019050919050565b60006020820190508181036000830152613606816135ca565b9050919050565b7f6d696e74206c696d697420657863656564656400000000000000000000000000600082015250565b6000613643601383612976565b915061364e8261360d565b602082019050919050565b6000602082019050818103600083015261367281613636565b9050919050565b7f455243373231413a20617070726f766520746f2063616c6c6572000000000000600082015250565b60006136af601a83612976565b91506136ba82613679565b602082019050919050565b600060208201905081810360008301526136de816136a2565b9050919050565b7f455243373231413a207472616e7366657220746f206e6f6e204552433732315260008201527f6563656976657220696d706c656d656e74657200000000000000000000000000602082015250565b6000613741603383612976565b915061374c826136e5565b604082019050919050565b6000602082019050818103600083015261377081613734565b9050919050565b7f4552433732314d657461646174613a2055524920717565727920666f72206e6f60008201527f6e6578697374656e7420746f6b656e0000000000000000000000000000000000602082015250565b60006137d3602f83612976565b91506137de82613777565b604082019050919050565b60006020820190508181036000830152613802816137c6565b9050919050565b600081905092915050565b600061381f8261296b565b6138298185613809565b9350613839818560208601612987565b80840191505092915050565b60006138518285613814565b915061385d8284613814565b91508190509392505050565b7f4f776e61626c653a206e6577206f776e657220697320746865207a65726f206160008201527f6464726573730000000000000000000000000000000000000000000000000000602082015250565b60006138c5602683612976565b91506138d082613869565b604082019050919050565b600060208201905081810360008301526138f4816138b8565b9050919050565b7f455243373231413a207472616e736665722063616c6c6572206973206e6f742060008201527f6f776e6572206e6f7220617070726f7665640000000000000000000000000000602082015250565b6000613957603283612976565b9150613962826138fb565b604082019050919050565b600060208201905081810360008301526139868161394a565b9050919050565b7f455243373231413a207472616e736665722066726f6d20696e636f727265637460008201527f206f776e65720000000000000000000000000000000000000000000000000000602082015250565b60006139e9602683612976565b91506139f48261398d565b604082019050919050565b60006020820190508181036000830152613a18816139dc565b9050919050565b7f455243373231413a207472616e7366657220746f20746865207a65726f20616460008201527f6472657373000000000000000000000000000000000000000000000000000000602082015250565b6000613a7b602583612976565b9150613a8682613a1f565b604082019050919050565b60006020820190508181036000830152613aaa81613a6e565b9050919050565b60006fffffffffffffffffffffffffffffffff82169050919050565b6000613ad882613ab1565b9150613ae383613ab1565b925082820390506fffffffffffffffffffffffffffffffff811115613b0b57613b0a613178565b5b92915050565b6000613b1c82613ab1565b9150613b2783613ab1565b925082820190506fffffffffffffffffffffffffffffffff811115613b4f57613b4e613178565b5b92915050565b7f455243373231413a206f776e657220717565727920666f72206e6f6e6578697360008201527f74656e7420746f6b656e00000000000000000000000000000000000000000000602082015250565b6000613bb1602a83612976565b9150613bbc82613b55565b604082019050919050565b60006020820190508181036000830152613be081613ba4565b9050919050565b6000613bf282612a1d565b9150613bfd83612a1d565b9250828203905081811115613c1557613c14613178565b5b92915050565b6000613c2682612a1d565b915060008203613c3957613c38613178565b5b600182039050919050565b7f455243373231413a20756e61626c6520746f2064657465726d696e652074686560008201527f206f776e6572206f6620746f6b656e0000000000000000000000000000000000602082015250565b6000613ca0602f83612976565b9150613cab82613c44565b604082019050919050565b60006020820190508181036000830152613ccf81613c93565b9050919050565b7f4f776e61626c653a2063616c6c6572206973206e6f7420746865206f776e6572600082015250565b6000613d0c602083612976565b9150613d1782613cd6565b602082019050919050565b60006020820190508181036000830152613d3b81613cff565b9050919050565b600081519050919050565b600082825260208201905092915050565b6000613d6982613d42565b613d738185613d4d565b9350613d83818560208601612987565b613d8c816129b1565b840191505092915050565b6000608082019050613dac6000830187612ab2565b613db96020830186612ab2565b613dc66040830185612bc2565b8181036060830152613dd88184613d5e565b905095945050505050565b600081519050613df2816128dc565b92915050565b600060208284031215613e0e57613e0d6128a6565b5b6000613e1c84828501613de3565b91505092915050565b7f4e487b7100000000000000000000000000000000000000000000000000000000600052601260045260246000fd5b7f455243373231413a206e756d626572206d696e74656420717565727920666f7260008201527f20746865207a65726f2061646472657373000000000000000000000000000000602082015250565b6000613eb0603183612976565b9150613ebb82613e54565b604082019050919050565b60006020820190508181036000830152613edf81613ea3565b9050919050565b7f455243373231413a206d696e7420746f20746865207a65726f2061646472657360008201527f7300000000000000000000000000000000000000000000000000000000000000602082015250565b6000613f42602183612976565b9150613f4d82613ee6565b604082019050919050565b60006020820190508181036000830152613f7181613f35565b9050919050565b7f455243373231413a20746f6b656e20616c7265616479206d696e746564000000600082015250565b6000613fae601d83612976565b9150613fb982613f78565b602082019050919050565b60006020820190508181036000830152613fdd81613fa1565b9050919050565b7f455243373231413a207175616e7469747920746f206d696e7420746f6f20686960008201527f6768000000000000000000000000000000000000000000000000000000000000602082015250565b6000614040602283612976565b915061404b82613fe4565b604082019050919050565b6000602082019050818103600083015261406f81614033565b905091905056fea2646970667358221220e44a235a266d414d9ea5f5417d31405373c8dfe97cb287cf805eb51b3705445b64736f6c63430008110033",
	"immutableReferences": {
		"3763": [
			{
				"length": 32,
				"start": 3519
			}
		],
		"3765": [
			{
				"length": 32,
				"start": 6947
			},
			{
				"length": 32,
				"start": 6988
			},
			{
				"length": 32,
				"start": 8910
			}
		]
	},
	"source": "// SPDX-License-Identifier: MIT\r\npragma solidity ^0.8.17;\r\n\r\nimport \"../@openzeppelin/contracts/token/ERC721/extensions/ERC721Enumerable.sol\";\r\n\r\nimport \"../@openzeppelin/contracts/access/Ownable.sol\";\r\nimport \"../@openzeppelin/contracts/utils/Strings.sol\";\r\nimport \"./ERC721A.sol\";\r\nimport \"./Token.sol\";\r\ncontract NftToken is Ownable, ERC721A{\r\n    uint public maxTokenNum;\r\n    uint public mintPrice = 1000;\r\n    uint mintLimit;\r\n    Token public coin;\r\n    mapping(address => uint256) public mintCount;\r\n\r\n    modifier mintRequire(uint _mintAmount){\r\n        require(_mintAmount > 0 && _mintAmount <= mintLimit, \"Invalid mint amount!\");\r\n        require(totalSupply() + _mintAmount <= collectionSize, \"Max supply exeeded!\");\r\n        require(numberMinted(msg.sender) + _mintAmount <= mintLimit, \"Can't mint this many\");\r\n        _;\r\n    }\r\n\r\n    constructor(string memory _name, string memory _symbol, uint256 _mintLimit, uint256 _collectionSize,address _coinCA)ERC721A(_name,_symbol, _mintLimit, _collectionSize){\r\n        coin = Token(payable(_coinCA));\r\n        mintLimit = _mintLimit;\r\n    }\r\n\r\n    //   \r\n    function getMintPrice() external view returns(uint){\r\n        return mintPrice;\r\n    }\r\n    \r\n    // \r\n    function _minting(uint _mintAmount) public mintRequire(_mintAmount){\r\n        require(coin.balanceOf(msg.sender) >= mintPrice * _mintAmount, \"Insufficient funds!\");\r\n        require(mintCount[msg.sender] + _mintAmount <= mintLimit, \"mint limit exceeded\");\r\n        _safeMint(msg.sender, _mintAmount);\r\n    }\r\n\r\n    // function refundIfOver(uint256 _mintPrice) private {\r\n    //     require(msg.value >= _mintPrice, \"Need to send more ETH.\");\r\n    //     if (msg.value > _mintPrice) {\r\n    //         payable(msg.sender).transfer(msg.value - _mintPrice);\r\n    //     }\r\n    // }\r\n\r\n    function numberMinted(address owner) public view returns (uint256) {\r\n        return _numberMinted(owner);\r\n    }\r\n\r\n    \r\n    // // metadata URI\r\n    string private _baseTokenURI = \"http://localhost:8000/metaData/\";\r\n\r\n    function _baseURI() internal view virtual override returns (string memory) {\r\n        return _baseTokenURI;\r\n    }\r\n\r\n    // function setBaseURI(string calldata baseURI) external onlyOwner {\r\n    //     _baseTokenURI = baseURI;\r\n    // }\r\n} \r\n\r\n//d,d,5,100,\"http://localhost:8000/metaData/\"",
	"sourcePath": "C:\\Users\\KGA_030\\Desktop\\class\\NFT_market\\smartContract\\contracts\\NftToken.sol",
	"compiler": {
		"name": "solc",
		"version": "0.8.17+commit.8df45f5f.Emscripten.clang"
	},
	"schemaVersion": "3.4.11",
	"updatedAt": "2022-12-22T03:38:21.542Z",
	"devdoc": {
		"kind": "dev",
		"methods": {
			"approve(address,uint256)": {
				"details": "See {IERC721-approve}."
			},
			"balanceOf(address)": {
				"details": "See {IERC721-balanceOf}."
			},
			"getApproved(uint256)": {
				"details": "See {IERC721-getApproved}."
			},
			"isApprovedForAll(address,address)": {
				"details": "See {IERC721-isApprovedForAll}."
			},
			"name()": {
				"details": "See {IERC721Metadata-name}."
			},
			"owner()": {
				"details": "Returns the address of the current owner."
			},
			"ownerOf(uint256)": {
				"details": "See {IERC721-ownerOf}."
			},
			"renounceOwnership()": {
				"details": "Leaves the contract without owner. It will not be possible to call `onlyOwner` functions anymore. Can only be called by the current owner. NOTE: Renouncing ownership will leave the contract without an owner, thereby removing any functionality that is only available to the owner."
			},
			"safeTransferFrom(address,address,uint256)": {
				"details": "See {IERC721-safeTransferFrom}."
			},
			"safeTransferFrom(address,address,uint256,bytes)": {
				"details": "See {IERC721-safeTransferFrom}."
			},
			"setApprovalForAll(address,bool)": {
				"details": "See {IERC721-setApprovalForAll}."
			},
			"supportsInterface(bytes4)": {
				"details": "See {IERC165-supportsInterface}."
			},
			"symbol()": {
				"details": "See {IERC721Metadata-symbol}."
			},
			"tokenByIndex(uint256)": {
				"details": "See {IERC721Enumerable-tokenByIndex}."
			},
			"tokenOfOwnerByIndex(address,uint256)": {
				"details": "See {IERC721Enumerable-tokenOfOwnerByIndex}. This read function is O(collectionSize). If calling from a separate contract, be sure to test gas first. It may also degrade with extremely large collection sizes (e.g >> 10000), test for your use case."
			},
			"tokenURI(uint256)": {
				"details": "See {IERC721Metadata-tokenURI}."
			},
			"totalSupply()": {
				"details": "See {IERC721Enumerable-totalSupply}."
			},
			"transferFrom(address,address,uint256)": {
				"details": "See {IERC721-transferFrom}."
			},
			"transferOwnership(address)": {
				"details": "Transfers ownership of the contract to a new account (`newOwner`). Can only be called by the current owner."
			}
		},
		"version": 1
	},
	"userdoc": {
		"kind": "user",
		"methods": {},
		"version": 1
	}
}