{
  "contractName": "Token",
  "abi": [
    {
      "inputs": [],
      "stateMutability": "nonpayable",
      "type": "constructor"
    },
    {
      "anonymous": false,
      "inputs": [
        {
          "indexed": true,
          "internalType": "address",
          "name": "owner",
          "type": "address"
        },
        {
          "indexed": true,
          "internalType": "address",
          "name": "spender",
          "type": "address"
        },
        {
          "indexed": false,
          "internalType": "uint256",
          "name": "value",
          "type": "uint256"
        }
      ],
      "name": "Approval",
      "type": "event"
    },
    {
      "anonymous": false,
      "inputs": [
        {
          "indexed": true,
          "internalType": "address",
          "name": "from",
          "type": "address"
        },
        {
          "indexed": true,
          "internalType": "address",
          "name": "to",
          "type": "address"
        },
        {
          "indexed": false,
          "internalType": "uint256",
          "name": "value",
          "type": "uint256"
        }
      ],
      "name": "Transfer",
      "type": "event"
    },
    {
      "inputs": [],
      "name": "_name",
      "outputs": [
        {
          "internalType": "string",
          "name": "",
          "type": "string"
        }
      ],
      "stateMutability": "view",
      "type": "function"
    },
    {
      "inputs": [],
      "name": "_symbol",
      "outputs": [
        {
          "internalType": "string",
          "name": "",
          "type": "string"
        }
      ],
      "stateMutability": "view",
      "type": "function"
    },
    {
      "inputs": [],
      "name": "_totalSupply",
      "outputs": [
        {
          "internalType": "uint256",
          "name": "",
          "type": "uint256"
        }
      ],
      "stateMutability": "view",
      "type": "function"
    },
    {
      "inputs": [
        {
          "internalType": "address",
          "name": "owner",
          "type": "address"
        },
        {
          "internalType": "address",
          "name": "spender",
          "type": "address"
        }
      ],
      "name": "allowance",
      "outputs": [
        {
          "internalType": "uint256",
          "name": "",
          "type": "uint256"
        }
      ],
      "stateMutability": "view",
      "type": "function"
    },
    {
      "inputs": [
        {
          "internalType": "address",
          "name": "spender",
          "type": "address"
        },
        {
          "internalType": "uint256",
          "name": "amount",
          "type": "uint256"
        }
      ],
      "name": "approve",
      "outputs": [
        {
          "internalType": "bool",
          "name": "",
          "type": "bool"
        }
      ],
      "stateMutability": "nonpayable",
      "type": "function"
    },
    {
      "inputs": [
        {
          "internalType": "address",
          "name": "account",
          "type": "address"
        }
      ],
      "name": "balanceOf",
      "outputs": [
        {
          "internalType": "uint256",
          "name": "",
          "type": "uint256"
        }
      ],
      "stateMutability": "view",
      "type": "function"
    },
    {
      "inputs": [],
      "name": "decimals",
      "outputs": [
        {
          "internalType": "uint8",
          "name": "",
          "type": "uint8"
        }
      ],
      "stateMutability": "view",
      "type": "function"
    },
    {
      "inputs": [
        {
          "internalType": "address",
          "name": "spender",
          "type": "address"
        },
        {
          "internalType": "uint256",
          "name": "subtractedValue",
          "type": "uint256"
        }
      ],
      "name": "decreaseAllowance",
      "outputs": [
        {
          "internalType": "bool",
          "name": "",
          "type": "bool"
        }
      ],
      "stateMutability": "nonpayable",
      "type": "function"
    },
    {
      "inputs": [
        {
          "internalType": "address",
          "name": "spender",
          "type": "address"
        },
        {
          "internalType": "uint256",
          "name": "addedValue",
          "type": "uint256"
        }
      ],
      "name": "increaseAllowance",
      "outputs": [
        {
          "internalType": "bool",
          "name": "",
          "type": "bool"
        }
      ],
      "stateMutability": "nonpayable",
      "type": "function"
    },
    {
      "inputs": [],
      "name": "name",
      "outputs": [
        {
          "internalType": "string",
          "name": "",
          "type": "string"
        }
      ],
      "stateMutability": "view",
      "type": "function"
    },
    {
      "inputs": [],
      "name": "operator",
      "outputs": [
        {
          "internalType": "address",
          "name": "",
          "type": "address"
        }
      ],
      "stateMutability": "view",
      "type": "function"
    },
    {
      "inputs": [],
      "name": "rate",
      "outputs": [
        {
          "internalType": "uint256",
          "name": "",
          "type": "uint256"
        }
      ],
      "stateMutability": "view",
      "type": "function"
    },
    {
      "inputs": [],
      "name": "symbol",
      "outputs": [
        {
          "internalType": "string",
          "name": "",
          "type": "string"
        }
      ],
      "stateMutability": "view",
      "type": "function"
    },
    {
      "inputs": [],
      "name": "totalSupply",
      "outputs": [
        {
          "internalType": "uint256",
          "name": "",
          "type": "uint256"
        }
      ],
      "stateMutability": "view",
      "type": "function"
    },
    {
      "inputs": [
        {
          "internalType": "address",
          "name": "to",
          "type": "address"
        },
        {
          "internalType": "uint256",
          "name": "amount",
          "type": "uint256"
        }
      ],
      "name": "transfer",
      "outputs": [
        {
          "internalType": "bool",
          "name": "",
          "type": "bool"
        }
      ],
      "stateMutability": "nonpayable",
      "type": "function"
    },
    {
      "inputs": [
        {
          "internalType": "address",
          "name": "from",
          "type": "address"
        },
        {
          "internalType": "address",
          "name": "to",
          "type": "address"
        },
        {
          "internalType": "uint256",
          "name": "amount",
          "type": "uint256"
        }
      ],
      "name": "transferFrom",
      "outputs": [
        {
          "internalType": "bool",
          "name": "",
          "type": "bool"
        }
      ],
      "stateMutability": "nonpayable",
      "type": "function"
    },
    {
      "stateMutability": "payable",
      "type": "receive"
    },
    {
      "inputs": [],
      "name": "buyToken",
      "outputs": [],
      "stateMutability": "payable",
      "type": "function"
    },
    {
      "inputs": [
        {
          "internalType": "uint256",
          "name": "_amount",
          "type": "uint256"
        }
      ],
      "name": "sellToken",
      "outputs": [],
      "stateMutability": "payable",
      "type": "function"
    },
    {
      "inputs": [
        {
          "internalType": "uint256",
          "name": "_mintPrice",
          "type": "uint256"
        },
        {
          "internalType": "uint256",
          "name": "_mintAmount",
          "type": "uint256"
        }
      ],
      "name": "mintNft",
      "outputs": [],
      "stateMutability": "nonpayable",
      "type": "function"
    },
    {
      "inputs": [],
      "name": "getCoinCA",
      "outputs": [
        {
          "internalType": "address",
          "name": "",
          "type": "address"
        }
      ],
      "stateMutability": "view",
      "type": "function"
    },
    {
      "inputs": [
        {
          "internalType": "address",
          "name": "_address",
          "type": "address"
        }
      ],
      "name": "checkCoinBalance",
      "outputs": [
        {
          "internalType": "uint256",
          "name": "",
          "type": "uint256"
        }
      ],
      "stateMutability": "view",
      "type": "function"
    }
  ],
  "bytecode": "0x60806040526040518060400160405280600981526020017f546f6b656e4e616d650000000000000000000000000000000000000000000000815250600590816200004a919062000679565b506040518060400160405280600b81526020017f546f6b656e53796d626f6c0000000000000000000000000000000000000000008152506006908162000091919062000679565b50620000a26200027f60201b60201c565b600a620000b09190620008f0565b6301312d00620000c1919062000941565b6007556103e8600855348015620000d757600080fd5b5060058054620000e79062000468565b80601f0160208091040260200160405190810160405280929190818152602001828054620001159062000468565b8015620001665780601f106200013a5761010080835404028352916020019162000166565b820191906000526020600020905b8154815290600101906020018083116200014857829003601f168201915b5050505050600680546200017a9062000468565b80601f0160208091040260200160405190810160405280929190818152602001828054620001a89062000468565b8015620001f95780601f10620001cd57610100808354040283529160200191620001f9565b820191906000526020600020905b815481529060010190602001808311620001db57829003601f168201915b505050505081600390816200020f919062000679565b50806004908162000221919062000679565b50505033600960006101000a81548173ffffffffffffffffffffffffffffffffffffffff021916908373ffffffffffffffffffffffffffffffffffffffff16021790555062000279306007546200028860201b60201c565b62000a78565b60006012905090565b600073ffffffffffffffffffffffffffffffffffffffff168273ffffffffffffffffffffffffffffffffffffffff1603620002fa576040517f08c379a0000000000000000000000000000000000000000000000000000000008152600401620002f190620009ed565b60405180910390fd5b6200030e60008383620003f560201b60201c565b806002600082825462000322919062000a0f565b92505081905550806000808473ffffffffffffffffffffffffffffffffffffffff1673ffffffffffffffffffffffffffffffffffffffff168152602001908152602001600020600082825401925050819055508173ffffffffffffffffffffffffffffffffffffffff16600073ffffffffffffffffffffffffffffffffffffffff167fddf252ad1be2c89b69c2b068fc378daa952ba7f163c4a11628f55a4df523b3ef83604051620003d5919062000a5b565b60405180910390a3620003f160008383620003fa60201b60201c565b5050565b505050565b505050565b600081519050919050565b7f4e487b7100000000000000000000000000000000000000000000000000000000600052604160045260246000fd5b7f4e487b7100000000000000000000000000000000000000000000000000000000600052602260045260246000fd5b600060028204905060018216806200048157607f821691505b60208210810362000497576200049662000439565b5b50919050565b60008190508160005260206000209050919050565b60006020601f8301049050919050565b600082821b905092915050565b600060088302620005017fffffffffffffffffffffffffffffffffffffffffffffffffffffffffffffffff82620004c2565b6200050d8683620004c2565b95508019841693508086168417925050509392505050565b6000819050919050565b6000819050919050565b60006200055a620005546200054e8462000525565b6200052f565b62000525565b9050919050565b6000819050919050565b620005768362000539565b6200058e620005858262000561565b848454620004cf565b825550505050565b600090565b620005a562000596565b620005b28184846200056b565b505050565b5b81811015620005da57620005ce6000826200059b565b600181019050620005b8565b5050565b601f8211156200062957620005f3816200049d565b620005fe84620004b2565b810160208510156200060e578190505b620006266200061d85620004b2565b830182620005b7565b50505b505050565b600082821c905092915050565b60006200064e600019846008026200062e565b1980831691505092915050565b60006200066983836200063b565b9150826002028217905092915050565b6200068482620003ff565b67ffffffffffffffff811115620006a0576200069f6200040a565b5b620006ac825462000468565b620006b9828285620005de565b600060209050601f831160018114620006f15760008415620006dc578287015190505b620006e885826200065b565b86555062000758565b601f19841662000701866200049d565b60005b828110156200072b5784890151825560018201915060208501945060208101905062000704565b868310156200074b578489015162000747601f8916826200063b565b8355505b6001600288020188555050505b505050505050565b7f4e487b7100000000000000000000000000000000000000000000000000000000600052601160045260246000fd5b60008160011c9050919050565b6000808291508390505b6001851115620007ee57808604811115620007c657620007c562000760565b5b6001851615620007d65780820291505b8081029050620007e6856200078f565b9450620007a6565b94509492505050565b600082620008095760019050620008dc565b81620008195760009050620008dc565b81600181146200083257600281146200083d5762000873565b6001915050620008dc565b60ff84111562000852576200085162000760565b5b8360020a9150848211156200086c576200086b62000760565b5b50620008dc565b5060208310610133831016604e8410600b8410161715620008ad5782820a905083811115620008a757620008a662000760565b5b620008dc565b620008bc84848460016200079c565b92509050818404811115620008d657620008d562000760565b5b81810290505b9392505050565b600060ff82169050919050565b6000620008fd8262000525565b91506200090a83620008e3565b9250620009397fffffffffffffffffffffffffffffffffffffffffffffffffffffffffffffffff8484620007f7565b905092915050565b60006200094e8262000525565b91506200095b8362000525565b92508282026200096b8162000525565b9150828204841483151762000985576200098462000760565b5b5092915050565b600082825260208201905092915050565b7f45524332303a206d696e7420746f20746865207a65726f206164647265737300600082015250565b6000620009d5601f836200098c565b9150620009e2826200099d565b602082019050919050565b6000602082019050818103600083015262000a0881620009c6565b9050919050565b600062000a1c8262000525565b915062000a298362000525565b925082820190508082111562000a445762000a4362000760565b5b92915050565b62000a558162000525565b82525050565b600060208201905062000a72600083018462000a4a565b92915050565b611a618062000a886000396000f3fe60806040526004361061012e5760003560e01c8063570ca735116100ab578063a9059cbb1161006f578063a9059cbb1461045e578063b09f12661461049b578063bc967075146104c6578063d28d885214610503578063dd62ed3e1461052e578063f53a261d1461056b576101aa565b8063570ca7351461038457806370a08231146103af57806395d89b41146103ec578063a457c2d714610417578063a482171914610454576101aa565b80632c4e722e116100f25780632c4e722e1461029b57806330322745146102c6578063313ce567146102f1578063395093511461031c5780633eaaf86b14610359576101aa565b806306fdde03146101af578063095ea7b3146101da57806318160ddd146102175780632397e4d71461024257806323b872dd1461025e576101aa565b366101aa5760003403610176576040517f08c379a000000000000000000000000000000000000000000000000000000000815260040161016d906110fa565b60405180910390fd5b6000600854346101869190611153565b90508061019230610594565b101561019d57600080fd5b6101a83033836105dc565b005b600080fd5b3480156101bb57600080fd5b506101c4610852565b6040516101d19190611214565b60405180910390f35b3480156101e657600080fd5b5061020160048036038101906101fc91906112c5565b6108e4565b60405161020e9190611320565b60405180910390f35b34801561022357600080fd5b5061022c610907565b604051610239919061134a565b60405180910390f35b61025c60048036038101906102579190611365565b610911565b005b34801561026a57600080fd5b5061028560048036038101906102809190611392565b610a17565b6040516102929190611320565b60405180910390f35b3480156102a757600080fd5b506102b0610a46565b6040516102bd919061134a565b60405180910390f35b3480156102d257600080fd5b506102db610a4c565b6040516102e891906113f4565b60405180910390f35b3480156102fd57600080fd5b50610306610a54565b604051610313919061142b565b60405180910390f35b34801561032857600080fd5b50610343600480360381019061033e91906112c5565b610a5d565b6040516103509190611320565b60405180910390f35b34801561036557600080fd5b5061036e610a94565b60405161037b919061134a565b60405180910390f35b34801561039057600080fd5b50610399610a9a565b6040516103a691906113f4565b60405180910390f35b3480156103bb57600080fd5b506103d660048036038101906103d19190611446565b610594565b6040516103e3919061134a565b60405180910390f35b3480156103f857600080fd5b50610401610ac0565b60405161040e9190611214565b60405180910390f35b34801561042357600080fd5b5061043e600480360381019061043991906112c5565b610b52565b60405161044b9190611320565b60405180910390f35b61045c610bc9565b005b34801561046a57600080fd5b50610485600480360381019061048091906112c5565b610c44565b6040516104929190611320565b60405180910390f35b3480156104a757600080fd5b506104b0610c67565b6040516104bd9190611214565b60405180910390f35b3480156104d257600080fd5b506104ed60048036038101906104e89190611446565b610cf5565b6040516104fa919061134a565b60405180910390f35b34801561050f57600080fd5b50610518610d07565b6040516105259190611214565b60405180910390f35b34801561053a57600080fd5b5061055560048036038101906105509190611473565b610d95565b604051610562919061134a565b60405180910390f35b34801561057757600080fd5b50610592600480360381019061058d91906114b3565b610e1c565b005b60008060008373ffffffffffffffffffffffffffffffffffffffff1673ffffffffffffffffffffffffffffffffffffffff168152602001908152602001600020549050919050565b600073ffffffffffffffffffffffffffffffffffffffff168373ffffffffffffffffffffffffffffffffffffffff160361064b576040517f08c379a000000000000000000000000000000000000000000000000000000000815260040161064290611565565b60405180910390fd5b600073ffffffffffffffffffffffffffffffffffffffff168273ffffffffffffffffffffffffffffffffffffffff16036106ba576040517f08c379a00000000000000000000000000000000000000000000000000000000081526004016106b1906115f7565b60405180910390fd5b6106c5838383610e36565b60008060008573ffffffffffffffffffffffffffffffffffffffff1673ffffffffffffffffffffffffffffffffffffffff1681526020019081526020016000205490508181101561074b576040517f08c379a000000000000000000000000000000000000000000000000000000000815260040161074290611689565b60405180910390fd5b8181036000808673ffffffffffffffffffffffffffffffffffffffff1673ffffffffffffffffffffffffffffffffffffffff16815260200190815260200160002081905550816000808573ffffffffffffffffffffffffffffffffffffffff1673ffffffffffffffffffffffffffffffffffffffff168152602001908152602001600020600082825401925050819055508273ffffffffffffffffffffffffffffffffffffffff168473ffffffffffffffffffffffffffffffffffffffff167fddf252ad1be2c89b69c2b068fc378daa952ba7f163c4a11628f55a4df523b3ef84604051610839919061134a565b60405180910390a361084c848484610e3b565b50505050565b606060038054610861906116d8565b80601f016020809104026020016040519081016040528092919081815260200182805461088d906116d8565b80156108da5780601f106108af576101008083540402835291602001916108da565b820191906000526020600020905b8154815290600101906020018083116108bd57829003601f168201915b5050505050905090565b6000806108ef610e40565b90506108fc818585610e48565b600191505092915050565b6000600254905090565b60008103610954576040517f08c379a000000000000000000000000000000000000000000000000000000000815260040161094b906110fa565b60405180910390fd5b60006064605f600854846109689190611738565b6109729190611153565b61097c9190611738565b9050804710156109c1576040517f08c379a00000000000000000000000000000000000000000000000000000000081526004016109b8906117b5565b60405180910390fd5b6109cc3330846105dc565b3373ffffffffffffffffffffffffffffffffffffffff166108fc829081150290604051600060405180830381858888f19350505050158015610a12573d6000803e3d6000fd5b505050565b600080610a22610e40565b9050610a2f858285611011565b610a3a8585856105dc565b60019150509392505050565b60085481565b600030905090565b60006012905090565b600080610a68610e40565b9050610a89818585610a7a8589610d95565b610a8491906117d5565b610e48565b600191505092915050565b60075481565b600960009054906101000a900473ffffffffffffffffffffffffffffffffffffffff1681565b606060048054610acf906116d8565b80601f0160208091040260200160405190810160405280929190818152602001828054610afb906116d8565b8015610b485780601f10610b1d57610100808354040283529160200191610b48565b820191906000526020600020905b815481529060010190602001808311610b2b57829003601f168201915b5050505050905090565b600080610b5d610e40565b90506000610b6b8286610d95565b905083811015610bb0576040517f08c379a0000000000000000000000000000000000000000000000000000000008152600401610ba79061187b565b60405180910390fd5b610bbd8286868403610e48565b60019250505092915050565b60003403610c0c576040517f08c379a0000000000000000000000000000000000000000000000000000000008152600401610c03906110fa565b60405180910390fd5b60006064605f60085434610c209190611153565b610c2a9190611153565b610c349190611738565b9050610c413033836105dc565b50565b600080610c4f610e40565b9050610c5c8185856105dc565b600191505092915050565b60068054610c74906116d8565b80601f0160208091040260200160405190810160405280929190818152602001828054610ca0906116d8565b8015610ced5780601f10610cc257610100808354040283529160200191610ced565b820191906000526020600020905b815481529060010190602001808311610cd057829003601f168201915b505050505081565b6000610d0082610594565b9050919050565b60058054610d14906116d8565b80601f0160208091040260200160405190810160405280929190818152602001828054610d40906116d8565b8015610d8d5780601f10610d6257610100808354040283529160200191610d8d565b820191906000526020600020905b815481529060010190602001808311610d7057829003601f168201915b505050505081565b6000600160008473ffffffffffffffffffffffffffffffffffffffff1673ffffffffffffffffffffffffffffffffffffffff16815260200190815260200160002060008373ffffffffffffffffffffffffffffffffffffffff1673ffffffffffffffffffffffffffffffffffffffff16815260200190815260200160002054905092915050565b610e3233308385610e2d9190611153565b6105dc565b5050565b505050565b505050565b600033905090565b600073ffffffffffffffffffffffffffffffffffffffff168373ffffffffffffffffffffffffffffffffffffffff1603610eb7576040517f08c379a0000000000000000000000000000000000000000000000000000000008152600401610eae9061190d565b60405180910390fd5b600073ffffffffffffffffffffffffffffffffffffffff168273ffffffffffffffffffffffffffffffffffffffff1603610f26576040517f08c379a0000000000000000000000000000000000000000000000000000000008152600401610f1d9061199f565b60405180910390fd5b80600160008573ffffffffffffffffffffffffffffffffffffffff1673ffffffffffffffffffffffffffffffffffffffff16815260200190815260200160002060008473ffffffffffffffffffffffffffffffffffffffff1673ffffffffffffffffffffffffffffffffffffffff168152602001908152602001600020819055508173ffffffffffffffffffffffffffffffffffffffff168373ffffffffffffffffffffffffffffffffffffffff167f8c5be1e5ebec7d5bd14f71427d1e84f3dd0314c0f7b2291e5b200ac8c7c3b92583604051611004919061134a565b60405180910390a3505050565b600061101d8484610d95565b90507fffffffffffffffffffffffffffffffffffffffffffffffffffffffffffffffff81146110975781811015611089576040517f08c379a000000000000000000000000000000000000000000000000000000000815260040161108090611a0b565b60405180910390fd5b6110968484848403610e48565b5b50505050565b600082825260208201905092915050565b7f546f20736d616c6c20616d6f756e742100000000000000000000000000000000600082015250565b60006110e460108361109d565b91506110ef826110ae565b602082019050919050565b60006020820190508181036000830152611113816110d7565b9050919050565b6000819050919050565b7f4e487b7100000000000000000000000000000000000000000000000000000000600052601160045260246000fd5b600061115e8261111a565b91506111698361111a565b92508282026111778161111a565b9150828204841483151761118e5761118d611124565b5b5092915050565b600081519050919050565b60005b838110156111be5780820151818401526020810190506111a3565b60008484015250505050565b6000601f19601f8301169050919050565b60006111e682611195565b6111f0818561109d565b93506112008185602086016111a0565b611209816111ca565b840191505092915050565b6000602082019050818103600083015261122e81846111db565b905092915050565b600080fd5b600073ffffffffffffffffffffffffffffffffffffffff82169050919050565b60006112668261123b565b9050919050565b6112768161125b565b811461128157600080fd5b50565b6000813590506112938161126d565b92915050565b6112a28161111a565b81146112ad57600080fd5b50565b6000813590506112bf81611299565b92915050565b600080604083850312156112dc576112db611236565b5b60006112ea85828601611284565b92505060206112fb858286016112b0565b9150509250929050565b60008115159050919050565b61131a81611305565b82525050565b60006020820190506113356000830184611311565b92915050565b6113448161111a565b82525050565b600060208201905061135f600083018461133b565b92915050565b60006020828403121561137b5761137a611236565b5b6000611389848285016112b0565b91505092915050565b6000806000606084860312156113ab576113aa611236565b5b60006113b986828701611284565b93505060206113ca86828701611284565b92505060406113db868287016112b0565b9150509250925092565b6113ee8161125b565b82525050565b600060208201905061140960008301846113e5565b92915050565b600060ff82169050919050565b6114258161140f565b82525050565b6000602082019050611440600083018461141c565b92915050565b60006020828403121561145c5761145b611236565b5b600061146a84828501611284565b91505092915050565b6000806040838503121561148a57611489611236565b5b600061149885828601611284565b92505060206114a985828601611284565b9150509250929050565b600080604083850312156114ca576114c9611236565b5b60006114d8858286016112b0565b92505060206114e9858286016112b0565b9150509250929050565b7f45524332303a207472616e736665722066726f6d20746865207a65726f20616460008201527f6472657373000000000000000000000000000000000000000000000000000000602082015250565b600061154f60258361109d565b915061155a826114f3565b604082019050919050565b6000602082019050818103600083015261157e81611542565b9050919050565b7f45524332303a207472616e7366657220746f20746865207a65726f206164647260008201527f6573730000000000000000000000000000000000000000000000000000000000602082015250565b60006115e160238361109d565b91506115ec82611585565b604082019050919050565b60006020820190508181036000830152611610816115d4565b9050919050565b7f45524332303a207472616e7366657220616d6f756e742065786365656473206260008201527f616c616e63650000000000000000000000000000000000000000000000000000602082015250565b600061167360268361109d565b915061167e82611617565b604082019050919050565b600060208201905081810360008301526116a281611666565b9050919050565b7f4e487b7100000000000000000000000000000000000000000000000000000000600052602260045260246000fd5b600060028204905060018216806116f057607f821691505b602082108103611703576117026116a9565b5b50919050565b7f4e487b7100000000000000000000000000000000000000000000000000000000600052601260045260246000fd5b60006117438261111a565b915061174e8361111a565b92508261175e5761175d611709565b5b828204905092915050565b7f5468657265206973206e6f2045544820696e20636f6e74726163740000000000600082015250565b600061179f601b8361109d565b91506117aa82611769565b602082019050919050565b600060208201905081810360008301526117ce81611792565b9050919050565b60006117e08261111a565b91506117eb8361111a565b925082820190508082111561180357611802611124565b5b92915050565b7f45524332303a2064656372656173656420616c6c6f77616e63652062656c6f7760008201527f207a65726f000000000000000000000000000000000000000000000000000000602082015250565b600061186560258361109d565b915061187082611809565b604082019050919050565b6000602082019050818103600083015261189481611858565b9050919050565b7f45524332303a20617070726f76652066726f6d20746865207a65726f2061646460008201527f7265737300000000000000000000000000000000000000000000000000000000602082015250565b60006118f760248361109d565b91506119028261189b565b604082019050919050565b60006020820190508181036000830152611926816118ea565b9050919050565b7f45524332303a20617070726f766520746f20746865207a65726f20616464726560008201527f7373000000000000000000000000000000000000000000000000000000000000602082015250565b600061198960228361109d565b91506119948261192d565b604082019050919050565b600060208201905081810360008301526119b88161197c565b9050919050565b7f45524332303a20696e73756666696369656e7420616c6c6f77616e6365000000600082015250565b60006119f5601d8361109d565b9150611a00826119bf565b602082019050919050565b60006020820190508181036000830152611a24816119e8565b905091905056fea2646970667358221220f77dbf06fee07c46114ee4c4cfc6d3663c37d5e2df9c34e614bef804ab3c7f1464736f6c63430008110033",
  "immutableReferences": {},
  "source": "// SPDX-License-Identifier: MIT\r\npragma solidity ^0.8.17;\r\n\r\nimport \"../@openzeppelin/contracts/token/ERC20/ERC20.sol\";\r\n\r\ncontract Token is ERC20{\r\n    string public _name = \"TokenName\";\r\n    string public _symbol = \"TokenSymbol\";\r\n    uint public _totalSupply = 20000000 * (10**decimals());\r\n    uint public rate = 1000;\r\n    address public operator;\r\n\r\n    constructor() ERC20(_name,_symbol){\r\n        operator = msg.sender;\r\n        _mint(address(this), _totalSupply);\r\n    }\r\n\r\n    // CA  \r\n    receive() external payable{\r\n        require(msg.value != 0, \"To small amount!\");\r\n        uint tokenAmount = msg.value * rate;\r\n        require(balanceOf(address(this)) >= tokenAmount);\r\n        _transfer(address(this), msg.sender, tokenAmount);\r\n    }\r\n\r\n    //  \r\n    function buyToken() public payable{\r\n        require(msg.value != 0, \"To small amount!\");\r\n        uint tokenAmount = msg.value * rate * 95 / 100;\r\n        _transfer(address(this), msg.sender, tokenAmount);\r\n    }\r\n    //  \r\n    function sellToken(uint256 _amount) public payable{\r\n        require(_amount != 0, \"To small amount!\");\r\n        uint etherAmount = _amount / rate * 95 / 100;\r\n        require(address(this).balance >= etherAmount, \"There is no ETH in contract\");\r\n        _transfer(msg.sender, address(this), _amount);\r\n        payable(msg.sender).transfer(etherAmount);\r\n    }\r\n\r\n    // nft \r\n    function mintNft(uint _mintPrice, uint _mintAmount) public {\r\n        _transfer(msg.sender, address(this), _mintPrice * _mintAmount);\r\n    }\r\n\r\n    // get CA\r\n    function getCoinCA() external view returns(address){\r\n        return address(this);\r\n    }\r\n\r\n    //   \r\n    function checkCoinBalance(address _address) public view returns(uint256) {\r\n        return balanceOf(_address);\r\n    }\r\n    //   \r\n}",
  "sourcePath": "C:\\Users\\qkrxo\\Desktop\\NFT_market\\smartContract\\contracts\\Token.sol",
  "compiler": {
    "name": "solc",
    "version": "0.8.17+commit.8df45f5f.Emscripten.clang"
  },
  "schemaVersion": "3.4.11",
  "updatedAt": "2022-12-22T13:59:22.200Z",
  "devdoc": {
    "kind": "dev",
    "methods": {
      "allowance(address,address)": {
        "details": "See {IERC20-allowance}."
      },
      "approve(address,uint256)": {
        "details": "See {IERC20-approve}. NOTE: If `amount` is the maximum `uint256`, the allowance is not updated on `transferFrom`. This is semantically equivalent to an infinite approval. Requirements: - `spender` cannot be the zero address."
      },
      "balanceOf(address)": {
        "details": "See {IERC20-balanceOf}."
      },
      "decimals()": {
        "details": "Returns the number of decimals used to get its user representation. For example, if `decimals` equals `2`, a balance of `505` tokens should be displayed to a user as `5.05` (`505 / 10 ** 2`). Tokens usually opt for a value of 18, imitating the relationship between Ether and Wei. This is the value {ERC20} uses, unless this function is overridden; NOTE: This information is only used for _display_ purposes: it in no way affects any of the arithmetic of the contract, including {IERC20-balanceOf} and {IERC20-transfer}."
      },
      "decreaseAllowance(address,uint256)": {
        "details": "Atomically decreases the allowance granted to `spender` by the caller. This is an alternative to {approve} that can be used as a mitigation for problems described in {IERC20-approve}. Emits an {Approval} event indicating the updated allowance. Requirements: - `spender` cannot be the zero address. - `spender` must have allowance for the caller of at least `subtractedValue`."
      },
      "increaseAllowance(address,uint256)": {
        "details": "Atomically increases the allowance granted to `spender` by the caller. This is an alternative to {approve} that can be used as a mitigation for problems described in {IERC20-approve}. Emits an {Approval} event indicating the updated allowance. Requirements: - `spender` cannot be the zero address."
      },
      "name()": {
        "details": "Returns the name of the token."
      },
      "symbol()": {
        "details": "Returns the symbol of the token, usually a shorter version of the name."
      },
      "totalSupply()": {
        "details": "See {IERC20-totalSupply}."
      },
      "transfer(address,uint256)": {
        "details": "See {IERC20-transfer}. Requirements: - `to` cannot be the zero address. - the caller must have a balance of at least `amount`."
      },
      "transferFrom(address,address,uint256)": {
        "details": "See {IERC20-transferFrom}. Emits an {Approval} event indicating the updated allowance. This is not required by the EIP. See the note at the beginning of {ERC20}. NOTE: Does not update the allowance if the current allowance is the maximum `uint256`. Requirements: - `from` and `to` cannot be the zero address. - `from` must have a balance of at least `amount`. - the caller must have allowance for ``from``'s tokens of at least `amount`."
      }
    },
    "version": 1
  },
  "userdoc": {
    "kind": "user",
    "methods": {},
    "version": 1
  }
}